{
  "_format": "hh-sol-artifact-1",
  "contractName": "HogwartsCardFactory",
  "sourceName": "contracts/HogwartsCardFactory.sol",
  "abi": [
    {
      "inputs": [],
      "stateMutability": "nonpayable",
      "type": "constructor"
    },
    {
      "anonymous": false,
      "inputs": [
        {
          "indexed": true,
          "internalType": "address",
          "name": "owner",
          "type": "address"
        },
        {
          "indexed": true,
          "internalType": "address",
          "name": "approved",
          "type": "address"
        },
        {
          "indexed": true,
          "internalType": "uint256",
          "name": "tokenId",
          "type": "uint256"
        }
      ],
      "name": "Approval",
      "type": "event"
    },
    {
      "anonymous": false,
      "inputs": [
        {
          "indexed": true,
          "internalType": "address",
          "name": "owner",
          "type": "address"
        },
        {
          "indexed": true,
          "internalType": "address",
          "name": "operator",
          "type": "address"
        },
        {
          "indexed": false,
          "internalType": "bool",
          "name": "approved",
          "type": "bool"
        }
      ],
      "name": "ApprovalForAll",
      "type": "event"
    },
    {
      "anonymous": false,
      "inputs": [
        {
          "indexed": true,
          "internalType": "uint256",
          "name": "tokenId",
          "type": "uint256"
        },
        {
          "indexed": false,
          "internalType": "address",
          "name": "issuer",
          "type": "address"
        },
        {
          "indexed": false,
          "internalType": "string",
          "name": "name",
          "type": "string"
        },
        {
          "indexed": false,
          "internalType": "string",
          "name": "age",
          "type": "string"
        },
        {
          "indexed": false,
          "internalType": "string",
          "name": "description",
          "type": "string"
        },
        {
          "indexed": false,
          "internalType": "string",
          "name": "mbti",
          "type": "string"
        },
        {
          "indexed": false,
          "internalType": "string",
          "name": "hobby",
          "type": "string"
        },
        {
          "indexed": false,
          "internalType": "string",
          "name": "level",
          "type": "string"
        },
        {
          "indexed": false,
          "internalType": "string",
          "name": "blood",
          "type": "string"
        },
        {
          "indexed": false,
          "internalType": "string",
          "name": "dormitory",
          "type": "string"
        }
      ],
      "name": "HogwartsCardMinted",
      "type": "event"
    },
    {
      "anonymous": false,
      "inputs": [
        {
          "indexed": true,
          "internalType": "address",
          "name": "from",
          "type": "address"
        },
        {
          "indexed": true,
          "internalType": "address",
          "name": "to",
          "type": "address"
        },
        {
          "indexed": true,
          "internalType": "uint256",
          "name": "tokenId",
          "type": "uint256"
        }
      ],
      "name": "Transfer",
      "type": "event"
    },
    {
      "inputs": [
        {
          "internalType": "address",
          "name": "to",
          "type": "address"
        },
        {
          "internalType": "uint256",
          "name": "tokenId",
          "type": "uint256"
        }
      ],
      "name": "approve",
      "outputs": [],
      "stateMutability": "nonpayable",
      "type": "function"
    },
    {
      "inputs": [
        {
          "internalType": "address",
          "name": "owner",
          "type": "address"
        }
      ],
      "name": "balanceOf",
      "outputs": [
        {
          "internalType": "uint256",
          "name": "",
          "type": "uint256"
        }
      ],
      "stateMutability": "view",
      "type": "function"
    },
    {
      "inputs": [
        {
          "internalType": "address",
          "name": "issuer",
          "type": "address"
        }
      ],
      "name": "getAmountOfTokenOwnedByIssuer",
      "outputs": [
        {
          "internalType": "uint256",
          "name": "",
          "type": "uint256"
        }
      ],
      "stateMutability": "view",
      "type": "function"
    },
    {
      "inputs": [
        {
          "internalType": "uint256",
          "name": "tokenId",
          "type": "uint256"
        }
      ],
      "name": "getApproved",
      "outputs": [
        {
          "internalType": "address",
          "name": "",
          "type": "address"
        }
      ],
      "stateMutability": "view",
      "type": "function"
    },
    {
      "inputs": [
        {
          "internalType": "address",
          "name": "issuer",
          "type": "address"
        }
      ],
      "name": "getUnemployedCardInfo",
      "outputs": [
        {
          "components": [
            {
              "internalType": "address",
              "name": "issuer",
              "type": "address"
            },
            {
              "internalType": "string",
              "name": "name",
              "type": "string"
            },
            {
              "internalType": "string",
              "name": "age",
              "type": "string"
            },
            {
              "internalType": "string",
              "name": "description",
              "type": "string"
            },
            {
              "internalType": "string",
              "name": "mbti",
              "type": "string"
            },
            {
              "internalType": "string",
              "name": "hobby",
              "type": "string"
            },
            {
              "internalType": "string",
              "name": "level",
              "type": "string"
            },
            {
              "internalType": "string",
              "name": "blood",
              "type": "string"
            },
            {
              "internalType": "string",
              "name": "dormitory",
              "type": "string"
            }
          ],
          "internalType": "struct HogwartsCardFactory.HogwartsCardInfo",
          "name": "",
          "type": "tuple"
        }
      ],
      "stateMutability": "view",
      "type": "function"
    },
    {
      "inputs": [
        {
          "internalType": "address",
          "name": "owner",
          "type": "address"
        },
        {
          "internalType": "address",
          "name": "operator",
          "type": "address"
        }
      ],
      "name": "isApprovedForAll",
      "outputs": [
        {
          "internalType": "bool",
          "name": "",
          "type": "bool"
        }
      ],
      "stateMutability": "view",
      "type": "function"
    },
    {
      "inputs": [
        {
          "internalType": "string",
          "name": "_name",
          "type": "string"
        },
        {
          "internalType": "string",
          "name": "_age",
          "type": "string"
        },
        {
          "internalType": "string",
          "name": "_description",
          "type": "string"
        },
        {
          "internalType": "string",
          "name": "_mbti",
          "type": "string"
        },
        {
          "internalType": "string",
          "name": "_hobby",
          "type": "string"
        },
        {
          "internalType": "string",
          "name": "_level",
          "type": "string"
        },
        {
          "internalType": "string",
          "name": "_blood",
          "type": "string"
        },
        {
          "internalType": "string",
          "name": "_dormitory",
          "type": "string"
        }
      ],
      "name": "mintHogwartsCard",
      "outputs": [
        {
          "internalType": "uint256",
          "name": "",
          "type": "uint256"
        }
      ],
      "stateMutability": "payable",
      "type": "function"
    },
    {
      "inputs": [],
      "name": "mintingFee",
      "outputs": [
        {
          "internalType": "uint256",
          "name": "",
          "type": "uint256"
        }
      ],
      "stateMutability": "view",
      "type": "function"
    },
    {
      "inputs": [],
      "name": "name",
      "outputs": [
        {
          "internalType": "string",
          "name": "",
          "type": "string"
        }
      ],
      "stateMutability": "view",
      "type": "function"
    },
    {
      "inputs": [
        {
          "internalType": "uint256",
          "name": "tokenId",
          "type": "uint256"
        }
      ],
      "name": "ownerOf",
      "outputs": [
        {
          "internalType": "address",
          "name": "",
          "type": "address"
        }
      ],
      "stateMutability": "view",
      "type": "function"
    },
    {
      "inputs": [
        {
          "internalType": "address",
          "name": "from",
          "type": "address"
        },
        {
          "internalType": "address",
          "name": "to",
          "type": "address"
        },
        {
          "internalType": "uint256",
          "name": "tokenId",
          "type": "uint256"
        }
      ],
      "name": "safeTransferFrom",
      "outputs": [],
      "stateMutability": "nonpayable",
      "type": "function"
    },
    {
      "inputs": [
        {
          "internalType": "address",
          "name": "from",
          "type": "address"
        },
        {
          "internalType": "address",
          "name": "to",
          "type": "address"
        },
        {
          "internalType": "uint256",
          "name": "tokenId",
          "type": "uint256"
        },
        {
          "internalType": "bytes",
          "name": "data",
          "type": "bytes"
        }
      ],
      "name": "safeTransferFrom",
      "outputs": [],
      "stateMutability": "nonpayable",
      "type": "function"
    },
    {
      "inputs": [
        {
          "internalType": "address",
          "name": "operator",
          "type": "address"
        },
        {
          "internalType": "bool",
          "name": "approved",
          "type": "bool"
        }
      ],
      "name": "setApprovalForAll",
      "outputs": [],
      "stateMutability": "nonpayable",
      "type": "function"
    },
    {
      "inputs": [
        {
          "internalType": "bytes4",
          "name": "interfaceId",
          "type": "bytes4"
        }
      ],
      "name": "supportsInterface",
      "outputs": [
        {
          "internalType": "bool",
          "name": "",
          "type": "bool"
        }
      ],
      "stateMutability": "view",
      "type": "function"
    },
    {
      "inputs": [],
      "name": "symbol",
      "outputs": [
        {
          "internalType": "string",
          "name": "",
          "type": "string"
        }
      ],
      "stateMutability": "view",
      "type": "function"
    },
    {
      "inputs": [
        {
          "internalType": "uint256",
          "name": "tokenId",
          "type": "uint256"
        }
      ],
      "name": "tokenURI",
      "outputs": [
        {
          "internalType": "string",
          "name": "",
          "type": "string"
        }
      ],
      "stateMutability": "view",
      "type": "function"
    },
    {
      "inputs": [
        {
          "internalType": "address",
          "name": "from",
          "type": "address"
        },
        {
          "internalType": "address",
          "name": "to",
          "type": "address"
        },
        {
          "internalType": "uint256",
          "name": "tokenId",
          "type": "uint256"
        }
      ],
      "name": "transferFrom",
      "outputs": [],
      "stateMutability": "nonpayable",
      "type": "function"
    }
  ],
  "bytecode": "0x6080604052662386f26fc100006007553480156200001c57600080fd5b506040518060400160405280600f81526020017f486f677761727473436172644e465400000000000000000000000000000000008152506040518060400160405280600c81526020017f486f67776172747343617264000000000000000000000000000000000000000081525081600090816200009a91906200032f565b508060019081620000ac91906200032f565b50505062000416565b600081519050919050565b7f4e487b7100000000000000000000000000000000000000000000000000000000600052604160045260246000fd5b7f4e487b7100000000000000000000000000000000000000000000000000000000600052602260045260246000fd5b600060028204905060018216806200013757607f821691505b6020821081036200014d576200014c620000ef565b5b50919050565b60008190508160005260206000209050919050565b60006020601f8301049050919050565b600082821b905092915050565b600060088302620001b77fffffffffffffffffffffffffffffffffffffffffffffffffffffffffffffffff8262000178565b620001c3868362000178565b95508019841693508086168417925050509392505050565b6000819050919050565b6000819050919050565b6000620002106200020a6200020484620001db565b620001e5565b620001db565b9050919050565b6000819050919050565b6200022c83620001ef565b620002446200023b8262000217565b84845462000185565b825550505050565b600090565b6200025b6200024c565b6200026881848462000221565b505050565b5b8181101562000290576200028460008262000251565b6001810190506200026e565b5050565b601f821115620002df57620002a98162000153565b620002b48462000168565b81016020851015620002c4578190505b620002dc620002d38562000168565b8301826200026d565b50505b505050565b600082821c905092915050565b60006200030460001984600802620002e4565b1980831691505092915050565b60006200031f8383620002f1565b9150826002028217905092915050565b6200033a82620000b5565b67ffffffffffffffff811115620003565762000355620000c0565b5b6200036282546200011e565b6200036f82828562000294565b600060209050601f831160018114620003a7576000841562000392578287015190505b6200039e858262000311565b8655506200040e565b601f198416620003b78662000153565b60005b82811015620003e157848901518255600182019150602085019450602081019050620003ba565b86831015620004015784890151620003fd601f891682620002f1565b8355505b6001600288020188555050505b505050505050565b613d0080620004266000396000f3fe6080604052600436106100fe5760003560e01c80635a64ad9511610095578063a22cb46511610064578063a22cb46514610360578063ae23efcf14610389578063b88d4fde146103c6578063c87b56dd146103ef578063e985e9c51461042c576100fe565b80635a64ad95146102905780636352211e146102bb57806370a08231146102f857806395d89b4114610335576100fe565b806323b872dd116100d157806323b872dd146101d157806342842e0e146101fa5780634f80bb9814610223578063537e83bf14610253576100fe565b806301ffc9a71461010357806306fdde0314610140578063081812fc1461016b578063095ea7b3146101a8575b600080fd5b34801561010f57600080fd5b5061012a600480360381019061012591906127b6565b610469565b60405161013791906127fe565b60405180910390f35b34801561014c57600080fd5b5061015561054b565b60405161016291906128a9565b60405180910390f35b34801561017757600080fd5b50610192600480360381019061018d9190612901565b6105dd565b60405161019f919061296f565b60405180910390f35b3480156101b457600080fd5b506101cf60048036038101906101ca91906129b6565b610623565b005b3480156101dd57600080fd5b506101f860048036038101906101f391906129f6565b61073a565b005b34801561020657600080fd5b50610221600480360381019061021c91906129f6565b61079a565b005b61023d60048036038101906102389190612b7e565b6107ba565b60405161024a9190612d23565b60405180910390f35b34801561025f57600080fd5b5061027a60048036038101906102759190612d3e565b611082565b6040516102879190612d23565b60405180910390f35b34801561029c57600080fd5b506102a56110cb565b6040516102b29190612d23565b60405180910390f35b3480156102c757600080fd5b506102e260048036038101906102dd9190612901565b6110d1565b6040516102ef919061296f565b60405180910390f35b34801561030457600080fd5b5061031f600480360381019061031a9190612d3e565b611157565b60405161032c9190612d23565b60405180910390f35b34801561034157600080fd5b5061034a61120e565b60405161035791906128a9565b60405180910390f35b34801561036c57600080fd5b5061038760048036038101906103829190612d97565b6112a0565b005b34801561039557600080fd5b506103b060048036038101906103ab9190612d3e565b6112b6565b6040516103bd9190612f26565b60405180910390f35b3480156103d257600080fd5b506103ed60048036038101906103e89190612fe9565b6117f6565b005b3480156103fb57600080fd5b5061041660048036038101906104119190612901565b611858565b60405161042391906128a9565b60405180910390f35b34801561043857600080fd5b50610453600480360381019061044e919061306c565b6118c0565b60405161046091906127fe565b60405180910390f35b60007f80ac58cd000000000000000000000000000000000000000000000000000000007bffffffffffffffffffffffffffffffffffffffffffffffffffffffff1916827bffffffffffffffffffffffffffffffffffffffffffffffffffffffff1916148061053457507f5b5e139f000000000000000000000000000000000000000000000000000000007bffffffffffffffffffffffffffffffffffffffffffffffffffffffff1916827bffffffffffffffffffffffffffffffffffffffffffffffffffffffff1916145b80610544575061054382611954565b5b9050919050565b60606000805461055a906130db565b80601f0160208091040260200160405190810160405280929190818152602001828054610586906130db565b80156105d35780601f106105a8576101008083540402835291602001916105d3565b820191906000526020600020905b8154815290600101906020018083116105b657829003601f168201915b5050505050905090565b60006105e8826119be565b6004600083815260200190815260200160002060009054906101000a900473ffffffffffffffffffffffffffffffffffffffff169050919050565b600061062e826110d1565b90508073ffffffffffffffffffffffffffffffffffffffff168373ffffffffffffffffffffffffffffffffffffffff160361069e576040517f08c379a00000000000000000000000000000000000000000000000000000000081526004016106959061317e565b60405180910390fd5b8073ffffffffffffffffffffffffffffffffffffffff166106bd611a09565b73ffffffffffffffffffffffffffffffffffffffff1614806106ec57506106eb816106e6611a09565b6118c0565b5b61072b576040517f08c379a000000000000000000000000000000000000000000000000000000000815260040161072290613210565b60405180910390fd5b6107358383611a11565b505050565b61074b610745611a09565b82611aca565b61078a576040517f08c379a0000000000000000000000000000000000000000000000000000000008152600401610781906132a2565b60405180910390fd5b610795838383611b5f565b505050565b6107b5838383604051806020016040528060008152506117f6565b505050565b600080600860003373ffffffffffffffffffffffffffffffffffffffff1673ffffffffffffffffffffffffffffffffffffffff168152602001908152602001600020604051806101200160405290816000820160009054906101000a900473ffffffffffffffffffffffffffffffffffffffff1673ffffffffffffffffffffffffffffffffffffffff1673ffffffffffffffffffffffffffffffffffffffff16815260200160018201805461086e906130db565b80601f016020809104026020016040519081016040528092919081815260200182805461089a906130db565b80156108e75780601f106108bc576101008083540402835291602001916108e7565b820191906000526020600020905b8154815290600101906020018083116108ca57829003601f168201915b50505050508152602001600282018054610900906130db565b80601f016020809104026020016040519081016040528092919081815260200182805461092c906130db565b80156109795780601f1061094e57610100808354040283529160200191610979565b820191906000526020600020905b81548152906001019060200180831161095c57829003601f168201915b50505050508152602001600382018054610992906130db565b80601f01602080910402602001604051908101604052809291908181526020018280546109be906130db565b8015610a0b5780601f106109e057610100808354040283529160200191610a0b565b820191906000526020600020905b8154815290600101906020018083116109ee57829003601f168201915b50505050508152602001600482018054610a24906130db565b80601f0160208091040260200160405190810160405280929190818152602001828054610a50906130db565b8015610a9d5780601f10610a7257610100808354040283529160200191610a9d565b820191906000526020600020905b815481529060010190602001808311610a8057829003601f168201915b50505050508152602001600582018054610ab6906130db565b80601f0160208091040260200160405190810160405280929190818152602001828054610ae2906130db565b8015610b2f5780601f10610b0457610100808354040283529160200191610b2f565b820191906000526020600020905b815481529060010190602001808311610b1257829003601f168201915b50505050508152602001600682018054610b48906130db565b80601f0160208091040260200160405190810160405280929190818152602001828054610b74906130db565b8015610bc15780601f10610b9657610100808354040283529160200191610bc1565b820191906000526020600020905b815481529060010190602001808311610ba457829003601f168201915b50505050508152602001600782018054610bda906130db565b80601f0160208091040260200160405190810160405280929190818152602001828054610c06906130db565b8015610c535780601f10610c2857610100808354040283529160200191610c53565b820191906000526020600020905b815481529060010190602001808311610c3657829003601f168201915b50505050508152602001600882018054610c6c906130db565b80601f0160208091040260200160405190810160405280929190818152602001828054610c98906130db565b8015610ce55780601f10610cba57610100808354040283529160200191610ce5565b820191906000526020600020905b815481529060010190602001808311610cc857829003601f168201915b5050505050815250509050604051602001610cff906132f3565b604051602081830303815290604052805190602001208160200151604051602001610d2a9190613339565b6040516020818303038152906040528051906020012003610d80576040517f08c379a0000000000000000000000000000000000000000000000000000000008152600401610d77906133c2565b60405180910390fd5b60006040518061012001604052803373ffffffffffffffffffffffffffffffffffffffff1681526020018c81526020018b81526020018a815260200189815260200188815260200187815260200186815260200185815250905080600860003373ffffffffffffffffffffffffffffffffffffffff1673ffffffffffffffffffffffffffffffffffffffff16815260200190815260200160002060008201518160000160006101000a81548173ffffffffffffffffffffffffffffffffffffffff021916908373ffffffffffffffffffffffffffffffffffffffff1602179055506020820151816001019081610e76919061358e565b506040820151816002019081610e8c919061358e565b506060820151816003019081610ea2919061358e565b506080820151816004019081610eb8919061358e565b5060a0820151816005019081610ece919061358e565b5060c0820151816006019081610ee4919061358e565b5060e0820151816007019081610efa919061358e565b50610100820151816008019081610f11919061358e565b509050506001600a60003373ffffffffffffffffffffffffffffffffffffffff1673ffffffffffffffffffffffffffffffffffffffff1681526020019081526020016000205410610f6b576007543414610f6a57600080fd5b5b6000610f75611e58565b9050610f813382611e73565b336009600083815260200190815260200160002060006101000a81548173ffffffffffffffffffffffffffffffffffffffff021916908373ffffffffffffffffffffffffffffffffffffffff160217905550600a60003373ffffffffffffffffffffffffffffffffffffffff1673ffffffffffffffffffffffffffffffffffffffff16815260200190815260200160002060008154809291906110239061368f565b9190505550807ffe870f8b18c9bd7850752809244f503549cdccf05ff36417b59d9b23f2070baf338e8e8e8e8e8e8e8e604051611068999897969594939291906136d7565b60405180910390a280935050505098975050505050505050565b6000600a60008373ffffffffffffffffffffffffffffffffffffffff1673ffffffffffffffffffffffffffffffffffffffff168152602001908152602001600020549050919050565b60075481565b6000806110dd83612090565b9050600073ffffffffffffffffffffffffffffffffffffffff168173ffffffffffffffffffffffffffffffffffffffff160361114e576040517f08c379a0000000000000000000000000000000000000000000000000000000008152600401611145906137e8565b60405180910390fd5b80915050919050565b60008073ffffffffffffffffffffffffffffffffffffffff168273ffffffffffffffffffffffffffffffffffffffff16036111c7576040517f08c379a00000000000000000000000000000000000000000000000000000000081526004016111be9061387a565b60405180910390fd5b600360008373ffffffffffffffffffffffffffffffffffffffff1673ffffffffffffffffffffffffffffffffffffffff168152602001908152602001600020549050919050565b60606001805461121d906130db565b80601f0160208091040260200160405190810160405280929190818152602001828054611249906130db565b80156112965780601f1061126b57610100808354040283529160200191611296565b820191906000526020600020905b81548152906001019060200180831161127957829003601f168201915b5050505050905090565b6112b26112ab611a09565b83836120cd565b5050565b6112be6126e8565b600860008373ffffffffffffffffffffffffffffffffffffffff1673ffffffffffffffffffffffffffffffffffffffff168152602001908152602001600020604051806101200160405290816000820160009054906101000a900473ffffffffffffffffffffffffffffffffffffffff1673ffffffffffffffffffffffffffffffffffffffff1673ffffffffffffffffffffffffffffffffffffffff16815260200160018201805461136f906130db565b80601f016020809104026020016040519081016040528092919081815260200182805461139b906130db565b80156113e85780601f106113bd576101008083540402835291602001916113e8565b820191906000526020600020905b8154815290600101906020018083116113cb57829003601f168201915b50505050508152602001600282018054611401906130db565b80601f016020809104026020016040519081016040528092919081815260200182805461142d906130db565b801561147a5780601f1061144f5761010080835404028352916020019161147a565b820191906000526020600020905b81548152906001019060200180831161145d57829003601f168201915b50505050508152602001600382018054611493906130db565b80601f01602080910402602001604051908101604052809291908181526020018280546114bf906130db565b801561150c5780601f106114e15761010080835404028352916020019161150c565b820191906000526020600020905b8154815290600101906020018083116114ef57829003601f168201915b50505050508152602001600482018054611525906130db565b80601f0160208091040260200160405190810160405280929190818152602001828054611551906130db565b801561159e5780601f106115735761010080835404028352916020019161159e565b820191906000526020600020905b81548152906001019060200180831161158157829003601f168201915b505050505081526020016005820180546115b7906130db565b80601f01602080910402602001604051908101604052809291908181526020018280546115e3906130db565b80156116305780601f1061160557610100808354040283529160200191611630565b820191906000526020600020905b81548152906001019060200180831161161357829003601f168201915b50505050508152602001600682018054611649906130db565b80601f0160208091040260200160405190810160405280929190818152602001828054611675906130db565b80156116c25780601f10611697576101008083540402835291602001916116c2565b820191906000526020600020905b8154815290600101906020018083116116a557829003601f168201915b505050505081526020016007820180546116db906130db565b80601f0160208091040260200160405190810160405280929190818152602001828054611707906130db565b80156117545780601f1061172957610100808354040283529160200191611754565b820191906000526020600020905b81548152906001019060200180831161173757829003601f168201915b5050505050815260200160088201805461176d906130db565b80601f0160208091040260200160405190810160405280929190818152602001828054611799906130db565b80156117e65780601f106117bb576101008083540402835291602001916117e6565b820191906000526020600020905b8154815290600101906020018083116117c957829003601f168201915b5050505050815250509050919050565b611807611801611a09565b83611aca565b611846576040517f08c379a000000000000000000000000000000000000000000000000000000000815260040161183d906132a2565b60405180910390fd5b61185284848484612239565b50505050565b6060611863826119be565b600061186d612295565b9050600081511161188d57604051806020016040528060008152506118b8565b80611897846122ac565b6040516020016118a892919061389a565b6040516020818303038152906040525b915050919050565b6000600560008473ffffffffffffffffffffffffffffffffffffffff1673ffffffffffffffffffffffffffffffffffffffff16815260200190815260200160002060008373ffffffffffffffffffffffffffffffffffffffff1673ffffffffffffffffffffffffffffffffffffffff16815260200190815260200160002060009054906101000a900460ff16905092915050565b60007f01ffc9a7000000000000000000000000000000000000000000000000000000007bffffffffffffffffffffffffffffffffffffffffffffffffffffffff1916827bffffffffffffffffffffffffffffffffffffffffffffffffffffffff1916149050919050565b6119c78161237a565b611a06576040517f08c379a00000000000000000000000000000000000000000000000000000000081526004016119fd906137e8565b60405180910390fd5b50565b600033905090565b816004600083815260200190815260200160002060006101000a81548173ffffffffffffffffffffffffffffffffffffffff021916908373ffffffffffffffffffffffffffffffffffffffff160217905550808273ffffffffffffffffffffffffffffffffffffffff16611a84836110d1565b73ffffffffffffffffffffffffffffffffffffffff167f8c5be1e5ebec7d5bd14f71427d1e84f3dd0314c0f7b2291e5b200ac8c7c3b92560405160405180910390a45050565b600080611ad6836110d1565b90508073ffffffffffffffffffffffffffffffffffffffff168473ffffffffffffffffffffffffffffffffffffffff161480611b185750611b1781856118c0565b5b80611b5657508373ffffffffffffffffffffffffffffffffffffffff16611b3e846105dd565b73ffffffffffffffffffffffffffffffffffffffff16145b91505092915050565b8273ffffffffffffffffffffffffffffffffffffffff16611b7f826110d1565b73ffffffffffffffffffffffffffffffffffffffff1614611bd5576040517f08c379a0000000000000000000000000000000000000000000000000000000008152600401611bcc90613930565b60405180910390fd5b600073ffffffffffffffffffffffffffffffffffffffff168273ffffffffffffffffffffffffffffffffffffffff1603611c44576040517f08c379a0000000000000000000000000000000000000000000000000000000008152600401611c3b906139c2565b60405180910390fd5b611c5183838360016123bb565b8273ffffffffffffffffffffffffffffffffffffffff16611c71826110d1565b73ffffffffffffffffffffffffffffffffffffffff1614611cc7576040517f08c379a0000000000000000000000000000000000000000000000000000000008152600401611cbe90613930565b60405180910390fd5b6004600082815260200190815260200160002060006101000a81549073ffffffffffffffffffffffffffffffffffffffff02191690556001600360008573ffffffffffffffffffffffffffffffffffffffff1673ffffffffffffffffffffffffffffffffffffffff168152602001908152602001600020600082825403925050819055506001600360008473ffffffffffffffffffffffffffffffffffffffff1673ffffffffffffffffffffffffffffffffffffffff16815260200190815260200160002060008282540192505081905550816002600083815260200190815260200160002060006101000a81548173ffffffffffffffffffffffffffffffffffffffff021916908373ffffffffffffffffffffffffffffffffffffffff160217905550808273ffffffffffffffffffffffffffffffffffffffff168473ffffffffffffffffffffffffffffffffffffffff167fddf252ad1be2c89b69c2b068fc378daa952ba7f163c4a11628f55a4df523b3ef60405160405180910390a4611e5383838360016123c1565b505050565b6000611e6460066123c7565b611e6e60066123dd565b905090565b600073ffffffffffffffffffffffffffffffffffffffff168273ffffffffffffffffffffffffffffffffffffffff1603611ee2576040517f08c379a0000000000000000000000000000000000000000000000000000000008152600401611ed990613a2e565b60405180910390fd5b611eeb8161237a565b15611f2b576040517f08c379a0000000000000000000000000000000000000000000000000000000008152600401611f2290613a9a565b60405180910390fd5b611f396000838360016123bb565b611f428161237a565b15611f82576040517f08c379a0000000000000000000000000000000000000000000000000000000008152600401611f7990613a9a565b60405180910390fd5b6001600360008473ffffffffffffffffffffffffffffffffffffffff1673ffffffffffffffffffffffffffffffffffffffff16815260200190815260200160002060008282540192505081905550816002600083815260200190815260200160002060006101000a81548173ffffffffffffffffffffffffffffffffffffffff021916908373ffffffffffffffffffffffffffffffffffffffff160217905550808273ffffffffffffffffffffffffffffffffffffffff16600073ffffffffffffffffffffffffffffffffffffffff167fddf252ad1be2c89b69c2b068fc378daa952ba7f163c4a11628f55a4df523b3ef60405160405180910390a461208c6000838360016123c1565b5050565b60006002600083815260200190815260200160002060009054906101000a900473ffffffffffffffffffffffffffffffffffffffff169050919050565b8173ffffffffffffffffffffffffffffffffffffffff168373ffffffffffffffffffffffffffffffffffffffff160361213b576040517f08c379a000000000000000000000000000000000000000000000000000000000815260040161213290613b06565b60405180910390fd5b80600560008573ffffffffffffffffffffffffffffffffffffffff1673ffffffffffffffffffffffffffffffffffffffff16815260200190815260200160002060008473ffffffffffffffffffffffffffffffffffffffff1673ffffffffffffffffffffffffffffffffffffffff16815260200190815260200160002060006101000a81548160ff0219169083151502179055508173ffffffffffffffffffffffffffffffffffffffff168373ffffffffffffffffffffffffffffffffffffffff167f17307eab39ab6107e8899845ad3d59bd9653f200f220920489ca2b5937696c318360405161222c91906127fe565b60405180910390a3505050565b612244848484611b5f565b612250848484846123eb565b61228f576040517f08c379a000000000000000000000000000000000000000000000000000000000815260040161228690613b98565b60405180910390fd5b50505050565b606060405180602001604052806000815250905090565b6060600060016122bb84612572565b01905060008167ffffffffffffffff8111156122da576122d9612a53565b5b6040519080825280601f01601f19166020018201604052801561230c5781602001600182028036833780820191505090505b509050600082602001820190505b60011561236f578080600190039150507f3031323334353637383961626364656600000000000000000000000000000000600a86061a8153600a858161236357612362613bb8565b5b0494506000850361231a575b819350505050919050565b60008073ffffffffffffffffffffffffffffffffffffffff1661239c83612090565b73ffffffffffffffffffffffffffffffffffffffff1614159050919050565b50505050565b50505050565b6001816000016000828254019250508190555050565b600081600001549050919050565b600061240c8473ffffffffffffffffffffffffffffffffffffffff166126c5565b15612565578373ffffffffffffffffffffffffffffffffffffffff1663150b7a02612435611a09565b8786866040518563ffffffff1660e01b81526004016124579493929190613c3c565b6020604051808303816000875af192505050801561249357506040513d601f19601f820116820180604052508101906124909190613c9d565b60015b612515573d80600081146124c3576040519150601f19603f3d011682016040523d82523d6000602084013e6124c8565b606091505b50600081510361250d576040517f08c379a000000000000000000000000000000000000000000000000000000000815260040161250490613b98565b60405180910390fd5b805181602001fd5b63150b7a0260e01b7bffffffffffffffffffffffffffffffffffffffffffffffffffffffff1916817bffffffffffffffffffffffffffffffffffffffffffffffffffffffff19161491505061256a565b600190505b949350505050565b600080600090507a184f03e93ff9f4daa797ed6e38ed64bf6a1f01000000000000000083106125d0577a184f03e93ff9f4daa797ed6e38ed64bf6a1f01000000000000000083816125c6576125c5613bb8565b5b0492506040810190505b6d04ee2d6d415b85acef8100000000831061260d576d04ee2d6d415b85acef8100000000838161260357612602613bb8565b5b0492506020810190505b662386f26fc10000831061263c57662386f26fc10000838161263257612631613bb8565b5b0492506010810190505b6305f5e1008310612665576305f5e100838161265b5761265a613bb8565b5b0492506008810190505b612710831061268a5761271083816126805761267f613bb8565b5b0492506004810190505b606483106126ad57606483816126a3576126a2613bb8565b5b0492506002810190505b600a83106126bc576001810190505b80915050919050565b6000808273ffffffffffffffffffffffffffffffffffffffff163b119050919050565b604051806101200160405280600073ffffffffffffffffffffffffffffffffffffffff16815260200160608152602001606081526020016060815260200160608152602001606081526020016060815260200160608152602001606081525090565b6000604051905090565b600080fd5b600080fd5b60007fffffffff0000000000000000000000000000000000000000000000000000000082169050919050565b6127938161275e565b811461279e57600080fd5b50565b6000813590506127b08161278a565b92915050565b6000602082840312156127cc576127cb612754565b5b60006127da848285016127a1565b91505092915050565b60008115159050919050565b6127f8816127e3565b82525050565b600060208201905061281360008301846127ef565b92915050565b600081519050919050565b600082825260208201905092915050565b60005b83811015612853578082015181840152602081019050612838565b60008484015250505050565b6000601f19601f8301169050919050565b600061287b82612819565b6128858185612824565b9350612895818560208601612835565b61289e8161285f565b840191505092915050565b600060208201905081810360008301526128c38184612870565b905092915050565b6000819050919050565b6128de816128cb565b81146128e957600080fd5b50565b6000813590506128fb816128d5565b92915050565b60006020828403121561291757612916612754565b5b6000612925848285016128ec565b91505092915050565b600073ffffffffffffffffffffffffffffffffffffffff82169050919050565b60006129598261292e565b9050919050565b6129698161294e565b82525050565b60006020820190506129846000830184612960565b92915050565b6129938161294e565b811461299e57600080fd5b50565b6000813590506129b08161298a565b92915050565b600080604083850312156129cd576129cc612754565b5b60006129db858286016129a1565b92505060206129ec858286016128ec565b9150509250929050565b600080600060608486031215612a0f57612a0e612754565b5b6000612a1d868287016129a1565b9350506020612a2e868287016129a1565b9250506040612a3f868287016128ec565b9150509250925092565b600080fd5b600080fd5b7f4e487b7100000000000000000000000000000000000000000000000000000000600052604160045260246000fd5b612a8b8261285f565b810181811067ffffffffffffffff82111715612aaa57612aa9612a53565b5b80604052505050565b6000612abd61274a565b9050612ac98282612a82565b919050565b600067ffffffffffffffff821115612ae957612ae8612a53565b5b612af28261285f565b9050602081019050919050565b82818337600083830152505050565b6000612b21612b1c84612ace565b612ab3565b905082815260208101848484011115612b3d57612b3c612a4e565b5b612b48848285612aff565b509392505050565b600082601f830112612b6557612b64612a49565b5b8135612b75848260208601612b0e565b91505092915050565b600080600080600080600080610100898b031215612b9f57612b9e612754565b5b600089013567ffffffffffffffff811115612bbd57612bbc612759565b5b612bc98b828c01612b50565b985050602089013567ffffffffffffffff811115612bea57612be9612759565b5b612bf68b828c01612b50565b975050604089013567ffffffffffffffff811115612c1757612c16612759565b5b612c238b828c01612b50565b965050606089013567ffffffffffffffff811115612c4457612c43612759565b5b612c508b828c01612b50565b955050608089013567ffffffffffffffff811115612c7157612c70612759565b5b612c7d8b828c01612b50565b94505060a089013567ffffffffffffffff811115612c9e57612c9d612759565b5b612caa8b828c01612b50565b93505060c089013567ffffffffffffffff811115612ccb57612cca612759565b5b612cd78b828c01612b50565b92505060e089013567ffffffffffffffff811115612cf857612cf7612759565b5b612d048b828c01612b50565b9150509295985092959890939650565b612d1d816128cb565b82525050565b6000602082019050612d386000830184612d14565b92915050565b600060208284031215612d5457612d53612754565b5b6000612d62848285016129a1565b91505092915050565b612d74816127e3565b8114612d7f57600080fd5b50565b600081359050612d9181612d6b565b92915050565b60008060408385031215612dae57612dad612754565b5b6000612dbc858286016129a1565b9250506020612dcd85828601612d82565b9150509250929050565b612de08161294e565b82525050565b600082825260208201905092915050565b6000612e0282612819565b612e0c8185612de6565b9350612e1c818560208601612835565b612e258161285f565b840191505092915050565b600061012083016000830151612e496000860182612dd7565b5060208301518482036020860152612e618282612df7565b91505060408301518482036040860152612e7b8282612df7565b91505060608301518482036060860152612e958282612df7565b91505060808301518482036080860152612eaf8282612df7565b91505060a083015184820360a0860152612ec98282612df7565b91505060c083015184820360c0860152612ee38282612df7565b91505060e083015184820360e0860152612efd8282612df7565b915050610100830151848203610100860152612f198282612df7565b9150508091505092915050565b60006020820190508181036000830152612f408184612e30565b905092915050565b600067ffffffffffffffff821115612f6357612f62612a53565b5b612f6c8261285f565b9050602081019050919050565b6000612f8c612f8784612f48565b612ab3565b905082815260208101848484011115612fa857612fa7612a4e565b5b612fb3848285612aff565b509392505050565b600082601f830112612fd057612fcf612a49565b5b8135612fe0848260208601612f79565b91505092915050565b6000806000806080858703121561300357613002612754565b5b6000613011878288016129a1565b9450506020613022878288016129a1565b9350506040613033878288016128ec565b925050606085013567ffffffffffffffff81111561305457613053612759565b5b61306087828801612fbb565b91505092959194509250565b6000806040838503121561308357613082612754565b5b6000613091858286016129a1565b92505060206130a2858286016129a1565b9150509250929050565b7f4e487b7100000000000000000000000000000000000000000000000000000000600052602260045260246000fd5b600060028204905060018216806130f357607f821691505b602082108103613106576131056130ac565b5b50919050565b7f4552433732313a20617070726f76616c20746f2063757272656e74206f776e6560008201527f7200000000000000000000000000000000000000000000000000000000000000602082015250565b6000613168602183612824565b91506131738261310c565b604082019050919050565b600060208201905081810360008301526131978161315b565b9050919050565b7f4552433732313a20617070726f76652063616c6c6572206973206e6f7420746f60008201527f6b656e206f776e6572206f7220617070726f76656420666f7220616c6c000000602082015250565b60006131fa603d83612824565b91506132058261319e565b604082019050919050565b60006020820190508181036000830152613229816131ed565b9050919050565b7f4552433732313a2063616c6c6572206973206e6f7420746f6b656e206f776e6560008201527f72206f7220617070726f76656400000000000000000000000000000000000000602082015250565b600061328c602d83612824565b915061329782613230565b604082019050919050565b600060208201905081810360008301526132bb8161327f565b9050919050565b600081905092915050565b50565b60006132dd6000836132c2565b91506132e8826132cd565b600082019050919050565b60006132fe826132d0565b9150819050919050565b600061331382612819565b61331d81856132c2565b935061332d818560208601612835565b80840191505092915050565b60006133458284613308565b915081905092915050565b7f526567697374657220796f757220486f677761727473204361726420696e666f60008201527f2046697273740000000000000000000000000000000000000000000000000000602082015250565b60006133ac602683612824565b91506133b782613350565b604082019050919050565b600060208201905081810360008301526133db8161339f565b9050919050565b60008190508160005260206000209050919050565b60006020601f8301049050919050565b600082821b905092915050565b6000600883026134447fffffffffffffffffffffffffffffffffffffffffffffffffffffffffffffffff82613407565b61344e8683613407565b95508019841693508086168417925050509392505050565b6000819050919050565b600061348b613486613481846128cb565b613466565b6128cb565b9050919050565b6000819050919050565b6134a583613470565b6134b96134b182613492565b848454613414565b825550505050565b600090565b6134ce6134c1565b6134d981848461349c565b505050565b5b818110156134fd576134f26000826134c6565b6001810190506134df565b5050565b601f82111561354257613513816133e2565b61351c846133f7565b8101602085101561352b578190505b61353f613537856133f7565b8301826134de565b50505b505050565b600082821c905092915050565b600061356560001984600802613547565b1980831691505092915050565b600061357e8383613554565b9150826002028217905092915050565b61359782612819565b67ffffffffffffffff8111156135b0576135af612a53565b5b6135ba82546130db565b6135c5828285613501565b600060209050601f8311600181146135f857600084156135e6578287015190505b6135f08582613572565b865550613658565b601f198416613606866133e2565b60005b8281101561362e57848901518255600182019150602085019450602081019050613609565b8683101561364b5784890151613647601f891682613554565b8355505b6001600288020188555050505b505050505050565b7f4e487b7100000000000000000000000000000000000000000000000000000000600052601160045260246000fd5b600061369a826128cb565b91507fffffffffffffffffffffffffffffffffffffffffffffffffffffffffffffffff82036136cc576136cb613660565b5b600182019050919050565b6000610120820190506136ed600083018c612960565b81810360208301526136ff818b612870565b90508181036040830152613713818a612870565b905081810360608301526137278189612870565b9050818103608083015261373b8188612870565b905081810360a083015261374f8187612870565b905081810360c08301526137638186612870565b905081810360e08301526137778185612870565b905081810361010083015261378c8184612870565b90509a9950505050505050505050565b7f4552433732313a20696e76616c696420746f6b656e2049440000000000000000600082015250565b60006137d2601883612824565b91506137dd8261379c565b602082019050919050565b60006020820190508181036000830152613801816137c5565b9050919050565b7f4552433732313a2061646472657373207a65726f206973206e6f74206120766160008201527f6c6964206f776e65720000000000000000000000000000000000000000000000602082015250565b6000613864602983612824565b915061386f82613808565b604082019050919050565b6000602082019050818103600083015261389381613857565b9050919050565b60006138a68285613308565b91506138b28284613308565b91508190509392505050565b7f4552433732313a207472616e736665722066726f6d20696e636f72726563742060008201527f6f776e6572000000000000000000000000000000000000000000000000000000602082015250565b600061391a602583612824565b9150613925826138be565b604082019050919050565b600060208201905081810360008301526139498161390d565b9050919050565b7f4552433732313a207472616e7366657220746f20746865207a65726f2061646460008201527f7265737300000000000000000000000000000000000000000000000000000000602082015250565b60006139ac602483612824565b91506139b782613950565b604082019050919050565b600060208201905081810360008301526139db8161399f565b9050919050565b7f4552433732313a206d696e7420746f20746865207a65726f2061646472657373600082015250565b6000613a18602083612824565b9150613a23826139e2565b602082019050919050565b60006020820190508181036000830152613a4781613a0b565b9050919050565b7f4552433732313a20746f6b656e20616c7265616479206d696e74656400000000600082015250565b6000613a84601c83612824565b9150613a8f82613a4e565b602082019050919050565b60006020820190508181036000830152613ab381613a77565b9050919050565b7f4552433732313a20617070726f766520746f2063616c6c657200000000000000600082015250565b6000613af0601983612824565b9150613afb82613aba565b602082019050919050565b60006020820190508181036000830152613b1f81613ae3565b9050919050565b7f4552433732313a207472616e7366657220746f206e6f6e20455243373231526560008201527f63656976657220696d706c656d656e7465720000000000000000000000000000602082015250565b6000613b82603283612824565b9150613b8d82613b26565b604082019050919050565b60006020820190508181036000830152613bb181613b75565b9050919050565b7f4e487b7100000000000000000000000000000000000000000000000000000000600052601260045260246000fd5b600081519050919050565b600082825260208201905092915050565b6000613c0e82613be7565b613c188185613bf2565b9350613c28818560208601612835565b613c318161285f565b840191505092915050565b6000608082019050613c516000830187612960565b613c5e6020830186612960565b613c6b6040830185612d14565b8181036060830152613c7d8184613c03565b905095945050505050565b600081519050613c978161278a565b92915050565b600060208284031215613cb357613cb2612754565b5b6000613cc184828501613c88565b9150509291505056fea26469706673582212208e5f3283c623182f759f973004550d0f5e8efd6df34f435bf3b00d323e502be664736f6c63430008130033",
  "linkReferences": {},
  "deployedLinkReferences": {}
}