{
  "_format": "hh-sol-artifact-1",
  "contractName": "HogwartsCardFactory",
  "sourceName": "contracts/HogwartsCardFactory.sol",
  "abi": [
    {
      "inputs": [],
      "stateMutability": "nonpayable",
      "type": "constructor"
    },
    {
      "anonymous": false,
      "inputs": [
        {
          "indexed": true,
          "internalType": "address",
          "name": "owner",
          "type": "address"
        },
        {
          "indexed": true,
          "internalType": "address",
          "name": "approved",
          "type": "address"
        },
        {
          "indexed": true,
          "internalType": "uint256",
          "name": "tokenId",
          "type": "uint256"
        }
      ],
      "name": "Approval",
      "type": "event"
    },
    {
      "anonymous": false,
      "inputs": [
        {
          "indexed": true,
          "internalType": "address",
          "name": "owner",
          "type": "address"
        },
        {
          "indexed": true,
          "internalType": "address",
          "name": "operator",
          "type": "address"
        },
        {
          "indexed": false,
          "internalType": "bool",
          "name": "approved",
          "type": "bool"
        }
      ],
      "name": "ApprovalForAll",
      "type": "event"
    },
    {
      "anonymous": false,
      "inputs": [
        {
          "indexed": true,
          "internalType": "uint256",
          "name": "tokenId",
          "type": "uint256"
        },
        {
          "indexed": false,
          "internalType": "address",
          "name": "issuer",
          "type": "address"
        },
        {
          "indexed": false,
          "internalType": "string",
          "name": "name",
          "type": "string"
        },
        {
          "indexed": false,
          "internalType": "string",
          "name": "age",
          "type": "string"
        },
        {
          "indexed": false,
          "internalType": "string",
          "name": "description",
          "type": "string"
        },
        {
          "indexed": false,
          "internalType": "string",
          "name": "mbti",
          "type": "string"
        },
        {
          "indexed": false,
          "internalType": "string",
          "name": "hobby",
          "type": "string"
        },
        {
          "indexed": false,
          "internalType": "string",
          "name": "level",
          "type": "string"
        },
        {
          "indexed": false,
          "internalType": "string",
          "name": "blood",
          "type": "string"
        },
        {
          "indexed": false,
          "internalType": "string",
          "name": "dormitory",
          "type": "string"
        }
      ],
      "name": "HogwartsCardMinted",
      "type": "event"
    },
    {
      "anonymous": false,
      "inputs": [
        {
          "indexed": true,
          "internalType": "address",
          "name": "from",
          "type": "address"
        },
        {
          "indexed": true,
          "internalType": "address",
          "name": "to",
          "type": "address"
        },
        {
          "indexed": true,
          "internalType": "uint256",
          "name": "tokenId",
          "type": "uint256"
        }
      ],
      "name": "Transfer",
      "type": "event"
    },
    {
      "inputs": [
        {
          "internalType": "address",
          "name": "to",
          "type": "address"
        },
        {
          "internalType": "uint256",
          "name": "tokenId",
          "type": "uint256"
        }
      ],
      "name": "approve",
      "outputs": [],
      "stateMutability": "nonpayable",
      "type": "function"
    },
    {
      "inputs": [
        {
          "internalType": "address",
          "name": "owner",
          "type": "address"
        }
      ],
      "name": "balanceOf",
      "outputs": [
        {
          "internalType": "uint256",
          "name": "",
          "type": "uint256"
        }
      ],
      "stateMutability": "view",
      "type": "function"
    },
    {
      "inputs": [
        {
          "internalType": "address",
          "name": "issuer",
          "type": "address"
        }
      ],
      "name": "getAmountOfTokenOwnedByIssuer",
      "outputs": [
        {
          "internalType": "uint256",
          "name": "",
          "type": "uint256"
        }
      ],
      "stateMutability": "view",
      "type": "function"
    },
    {
      "inputs": [
        {
          "internalType": "uint256",
          "name": "tokenId",
          "type": "uint256"
        }
      ],
      "name": "getApproved",
      "outputs": [
        {
          "internalType": "address",
          "name": "",
          "type": "address"
        }
      ],
      "stateMutability": "view",
      "type": "function"
    },
    {
      "inputs": [],
      "name": "getTokenId",
      "outputs": [
        {
          "internalType": "uint256",
          "name": "",
          "type": "uint256"
        }
      ],
      "stateMutability": "view",
      "type": "function"
    },
    {
      "inputs": [
        {
          "internalType": "address",
          "name": "issuer",
          "type": "address"
        }
      ],
      "name": "getUnemployedCardInfo",
      "outputs": [
        {
          "components": [
            {
              "internalType": "address",
              "name": "issuer",
              "type": "address"
            },
            {
              "internalType": "string",
              "name": "name",
              "type": "string"
            },
            {
              "internalType": "string",
              "name": "age",
              "type": "string"
            },
            {
              "internalType": "string",
              "name": "description",
              "type": "string"
            },
            {
              "internalType": "string",
              "name": "mbti",
              "type": "string"
            },
            {
              "internalType": "string",
              "name": "hobby",
              "type": "string"
            },
            {
              "internalType": "string",
              "name": "level",
              "type": "string"
            },
            {
              "internalType": "string",
              "name": "blood",
              "type": "string"
            },
            {
              "internalType": "string",
              "name": "dormitory",
              "type": "string"
            }
          ],
          "internalType": "struct HogwartsCardFactory.HogwartsCardInfo",
          "name": "",
          "type": "tuple"
        }
      ],
      "stateMutability": "view",
      "type": "function"
    },
    {
      "inputs": [
        {
          "internalType": "address",
          "name": "owner",
          "type": "address"
        },
        {
          "internalType": "address",
          "name": "operator",
          "type": "address"
        }
      ],
      "name": "isApprovedForAll",
      "outputs": [
        {
          "internalType": "bool",
          "name": "",
          "type": "bool"
        }
      ],
      "stateMutability": "view",
      "type": "function"
    },
    {
      "inputs": [
        {
          "internalType": "string",
          "name": "_name",
          "type": "string"
        },
        {
          "internalType": "string",
          "name": "_age",
          "type": "string"
        },
        {
          "internalType": "string",
          "name": "_description",
          "type": "string"
        },
        {
          "internalType": "string",
          "name": "_mbti",
          "type": "string"
        },
        {
          "internalType": "string",
          "name": "_hobby",
          "type": "string"
        },
        {
          "internalType": "string",
          "name": "_level",
          "type": "string"
        },
        {
          "internalType": "string",
          "name": "_blood",
          "type": "string"
        },
        {
          "internalType": "string",
          "name": "_dormitory",
          "type": "string"
        }
      ],
      "name": "mintHogwartsCard",
      "outputs": [],
      "stateMutability": "payable",
      "type": "function"
    },
    {
      "inputs": [],
      "name": "mintingFee",
      "outputs": [
        {
          "internalType": "uint256",
          "name": "",
          "type": "uint256"
        }
      ],
      "stateMutability": "view",
      "type": "function"
    },
    {
      "inputs": [],
      "name": "name",
      "outputs": [
        {
          "internalType": "string",
          "name": "",
          "type": "string"
        }
      ],
      "stateMutability": "view",
      "type": "function"
    },
    {
      "inputs": [
        {
          "internalType": "uint256",
          "name": "tokenId",
          "type": "uint256"
        }
      ],
      "name": "ownerOf",
      "outputs": [
        {
          "internalType": "address",
          "name": "",
          "type": "address"
        }
      ],
      "stateMutability": "view",
      "type": "function"
    },
    {
      "inputs": [
        {
          "internalType": "address",
          "name": "from",
          "type": "address"
        },
        {
          "internalType": "address",
          "name": "to",
          "type": "address"
        },
        {
          "internalType": "uint256",
          "name": "tokenId",
          "type": "uint256"
        }
      ],
      "name": "safeTransferFrom",
      "outputs": [],
      "stateMutability": "nonpayable",
      "type": "function"
    },
    {
      "inputs": [
        {
          "internalType": "address",
          "name": "from",
          "type": "address"
        },
        {
          "internalType": "address",
          "name": "to",
          "type": "address"
        },
        {
          "internalType": "uint256",
          "name": "tokenId",
          "type": "uint256"
        },
        {
          "internalType": "bytes",
          "name": "data",
          "type": "bytes"
        }
      ],
      "name": "safeTransferFrom",
      "outputs": [],
      "stateMutability": "nonpayable",
      "type": "function"
    },
    {
      "inputs": [
        {
          "internalType": "address",
          "name": "operator",
          "type": "address"
        },
        {
          "internalType": "bool",
          "name": "approved",
          "type": "bool"
        }
      ],
      "name": "setApprovalForAll",
      "outputs": [],
      "stateMutability": "nonpayable",
      "type": "function"
    },
    {
      "inputs": [
        {
          "internalType": "bytes4",
          "name": "interfaceId",
          "type": "bytes4"
        }
      ],
      "name": "supportsInterface",
      "outputs": [
        {
          "internalType": "bool",
          "name": "",
          "type": "bool"
        }
      ],
      "stateMutability": "view",
      "type": "function"
    },
    {
      "inputs": [],
      "name": "symbol",
      "outputs": [
        {
          "internalType": "string",
          "name": "",
          "type": "string"
        }
      ],
      "stateMutability": "view",
      "type": "function"
    },
    {
      "inputs": [
        {
          "internalType": "uint256",
          "name": "tokenId",
          "type": "uint256"
        }
      ],
      "name": "tokenURI",
      "outputs": [
        {
          "internalType": "string",
          "name": "",
          "type": "string"
        }
      ],
      "stateMutability": "view",
      "type": "function"
    },
    {
      "inputs": [
        {
          "internalType": "address",
          "name": "from",
          "type": "address"
        },
        {
          "internalType": "address",
          "name": "to",
          "type": "address"
        },
        {
          "internalType": "uint256",
          "name": "tokenId",
          "type": "uint256"
        }
      ],
      "name": "transferFrom",
      "outputs": [],
      "stateMutability": "nonpayable",
      "type": "function"
    }
  ],
  "bytecode": "0x6080604052662386f26fc100006007553480156200001c57600080fd5b506040518060400160405280600f81526020017f486f677761727473436172644e465400000000000000000000000000000000008152506040518060400160405280600c81526020017f486f67776172747343617264000000000000000000000000000000000000000081525081600090816200009a91906200032f565b508060019081620000ac91906200032f565b50505062000416565b600081519050919050565b7f4e487b7100000000000000000000000000000000000000000000000000000000600052604160045260246000fd5b7f4e487b7100000000000000000000000000000000000000000000000000000000600052602260045260246000fd5b600060028204905060018216806200013757607f821691505b6020821081036200014d576200014c620000ef565b5b50919050565b60008190508160005260206000209050919050565b60006020601f8301049050919050565b600082821b905092915050565b600060088302620001b77fffffffffffffffffffffffffffffffffffffffffffffffffffffffffffffffff8262000178565b620001c3868362000178565b95508019841693508086168417925050509392505050565b6000819050919050565b6000819050919050565b6000620002106200020a6200020484620001db565b620001e5565b620001db565b9050919050565b6000819050919050565b6200022c83620001ef565b620002446200023b8262000217565b84845462000185565b825550505050565b600090565b6200025b6200024c565b6200026881848462000221565b505050565b5b8181101562000290576200028460008262000251565b6001810190506200026e565b5050565b601f821115620002df57620002a98162000153565b620002b48462000168565b81016020851015620002c4578190505b620002dc620002d38562000168565b8301826200026d565b50505b505050565b600082821c905092915050565b60006200030460001984600802620002e4565b1980831691505092915050565b60006200031f8383620002f1565b9150826002028217905092915050565b6200033a82620000b5565b67ffffffffffffffff811115620003565762000355620000c0565b5b6200036282546200011e565b6200036f82828562000294565b600060209050601f831160018114620003a7576000841562000392578287015190505b6200039e858262000311565b8655506200040e565b601f198416620003b78662000153565b60005b82811015620003e157848901518255600182019150602085019450602081019050620003ba565b86831015620004015784890151620003fd601f891682620002f1565b8355505b6001600288020188555050505b505050505050565b61368380620004266000396000f3fe6080604052600436106101095760003560e01c80635a64ad9511610095578063a22cb46511610064578063a22cb46514610382578063ae23efcf146103ab578063b88d4fde146103e8578063c87b56dd14610411578063e985e9c51461044e57610109565b80635a64ad95146102b25780636352211e146102dd57806370a082311461031a57806395d89b411461035757610109565b8063095ea7b3116100dc578063095ea7b3146101de57806323b872dd1461020757806342842e0e146102305780634f80bb9814610259578063537e83bf1461027557610109565b8063010a38f51461010e57806301ffc9a71461013957806306fdde0314610176578063081812fc146101a1575b600080fd5b34801561011a57600080fd5b5061012361048b565b60405161013091906121ca565b60405180910390f35b34801561014557600080fd5b50610160600480360381019061015b9190612251565b61049c565b60405161016d9190612299565b60405180910390f35b34801561018257600080fd5b5061018b61057e565b6040516101989190612344565b60405180910390f35b3480156101ad57600080fd5b506101c860048036038101906101c39190612392565b610610565b6040516101d59190612400565b60405180910390f35b3480156101ea57600080fd5b5061020560048036038101906102009190612447565b610656565b005b34801561021357600080fd5b5061022e60048036038101906102299190612487565b61076d565b005b34801561023c57600080fd5b5061025760048036038101906102529190612487565b6107cd565b005b610273600480360381019061026e919061260f565b6107ed565b005b34801561028157600080fd5b5061029c600480360381019061029791906127a5565b610ae9565b6040516102a991906121ca565b60405180910390f35b3480156102be57600080fd5b506102c7610b32565b6040516102d491906121ca565b60405180910390f35b3480156102e957600080fd5b5061030460048036038101906102ff9190612392565b610b38565b6040516103119190612400565b60405180910390f35b34801561032657600080fd5b50610341600480360381019061033c91906127a5565b610bbe565b60405161034e91906121ca565b60405180910390f35b34801561036357600080fd5b5061036c610c75565b6040516103799190612344565b60405180910390f35b34801561038e57600080fd5b506103a960048036038101906103a491906127fe565b610d07565b005b3480156103b757600080fd5b506103d260048036038101906103cd91906127a5565b610d1d565b6040516103df919061298d565b60405180910390f35b3480156103f457600080fd5b5061040f600480360381019061040a9190612a50565b61125d565b005b34801561041d57600080fd5b5061043860048036038101906104339190612392565b6112bf565b6040516104459190612344565b60405180910390f35b34801561045a57600080fd5b5061047560048036038101906104709190612ad3565b611327565b6040516104829190612299565b60405180910390f35b600061049760066113bb565b905090565b60007f80ac58cd000000000000000000000000000000000000000000000000000000007bffffffffffffffffffffffffffffffffffffffffffffffffffffffff1916827bffffffffffffffffffffffffffffffffffffffffffffffffffffffff1916148061056757507f5b5e139f000000000000000000000000000000000000000000000000000000007bffffffffffffffffffffffffffffffffffffffffffffffffffffffff1916827bffffffffffffffffffffffffffffffffffffffffffffffffffffffff1916145b806105775750610576826113c9565b5b9050919050565b60606000805461058d90612b42565b80601f01602080910402602001604051908101604052809291908181526020018280546105b990612b42565b80156106065780601f106105db57610100808354040283529160200191610606565b820191906000526020600020905b8154815290600101906020018083116105e957829003601f168201915b5050505050905090565b600061061b82611433565b6004600083815260200190815260200160002060009054906101000a900473ffffffffffffffffffffffffffffffffffffffff169050919050565b600061066182610b38565b90508073ffffffffffffffffffffffffffffffffffffffff168373ffffffffffffffffffffffffffffffffffffffff16036106d1576040517f08c379a00000000000000000000000000000000000000000000000000000000081526004016106c890612be5565b60405180910390fd5b8073ffffffffffffffffffffffffffffffffffffffff166106f061147e565b73ffffffffffffffffffffffffffffffffffffffff16148061071f575061071e8161071961147e565b611327565b5b61075e576040517f08c379a000000000000000000000000000000000000000000000000000000000815260040161075590612c77565b60405180910390fd5b6107688383611486565b505050565b61077e61077861147e565b8261153f565b6107bd576040517f08c379a00000000000000000000000000000000000000000000000000000000081526004016107b490612d09565b60405180910390fd5b6107c88383836115d4565b505050565b6107e88383836040518060200160405280600081525061125d565b505050565b60006040518061012001604052803373ffffffffffffffffffffffffffffffffffffffff1681526020018a815260200189815260200188815260200187815260200186815260200185815260200184815260200183815250905080600860003373ffffffffffffffffffffffffffffffffffffffff1673ffffffffffffffffffffffffffffffffffffffff16815260200190815260200160002060008201518160000160006101000a81548173ffffffffffffffffffffffffffffffffffffffff021916908373ffffffffffffffffffffffffffffffffffffffff16021790555060208201518160010190816108e39190612ed5565b5060408201518160020190816108f99190612ed5565b50606082015181600301908161090f9190612ed5565b5060808201518160040190816109259190612ed5565b5060a082015181600501908161093b9190612ed5565b5060c08201518160060190816109519190612ed5565b5060e08201518160070190816109679190612ed5565b5061010082015181600801908161097e9190612ed5565b509050506001600a60003373ffffffffffffffffffffffffffffffffffffffff1673ffffffffffffffffffffffffffffffffffffffff16815260200190815260200160002054106109d85760075434146109d757600080fd5b5b60006109e26118cd565b90506109ee33826118e8565b336009600083815260200190815260200160002060006101000a81548173ffffffffffffffffffffffffffffffffffffffff021916908373ffffffffffffffffffffffffffffffffffffffff160217905550600a60003373ffffffffffffffffffffffffffffffffffffffff1673ffffffffffffffffffffffffffffffffffffffff1681526020019081526020016000206000815480929190610a9090612fd6565b9190505550807ffe870f8b18c9bd7850752809244f503549cdccf05ff36417b59d9b23f2070baf338c8c8c8c8c8c8c8c604051610ad59998979695949392919061301e565b60405180910390a250505050505050505050565b6000600a60008373ffffffffffffffffffffffffffffffffffffffff1673ffffffffffffffffffffffffffffffffffffffff168152602001908152602001600020549050919050565b60075481565b600080610b4483611b05565b9050600073ffffffffffffffffffffffffffffffffffffffff168173ffffffffffffffffffffffffffffffffffffffff1603610bb5576040517f08c379a0000000000000000000000000000000000000000000000000000000008152600401610bac9061312f565b60405180910390fd5b80915050919050565b60008073ffffffffffffffffffffffffffffffffffffffff168273ffffffffffffffffffffffffffffffffffffffff1603610c2e576040517f08c379a0000000000000000000000000000000000000000000000000000000008152600401610c25906131c1565b60405180910390fd5b600360008373ffffffffffffffffffffffffffffffffffffffff1673ffffffffffffffffffffffffffffffffffffffff168152602001908152602001600020549050919050565b606060018054610c8490612b42565b80601f0160208091040260200160405190810160405280929190818152602001828054610cb090612b42565b8015610cfd5780601f10610cd257610100808354040283529160200191610cfd565b820191906000526020600020905b815481529060010190602001808311610ce057829003601f168201915b5050505050905090565b610d19610d1261147e565b8383611b42565b5050565b610d2561214f565b600860008373ffffffffffffffffffffffffffffffffffffffff1673ffffffffffffffffffffffffffffffffffffffff168152602001908152602001600020604051806101200160405290816000820160009054906101000a900473ffffffffffffffffffffffffffffffffffffffff1673ffffffffffffffffffffffffffffffffffffffff1673ffffffffffffffffffffffffffffffffffffffff168152602001600182018054610dd690612b42565b80601f0160208091040260200160405190810160405280929190818152602001828054610e0290612b42565b8015610e4f5780601f10610e2457610100808354040283529160200191610e4f565b820191906000526020600020905b815481529060010190602001808311610e3257829003601f168201915b50505050508152602001600282018054610e6890612b42565b80601f0160208091040260200160405190810160405280929190818152602001828054610e9490612b42565b8015610ee15780601f10610eb657610100808354040283529160200191610ee1565b820191906000526020600020905b815481529060010190602001808311610ec457829003601f168201915b50505050508152602001600382018054610efa90612b42565b80601f0160208091040260200160405190810160405280929190818152602001828054610f2690612b42565b8015610f735780601f10610f4857610100808354040283529160200191610f73565b820191906000526020600020905b815481529060010190602001808311610f5657829003601f168201915b50505050508152602001600482018054610f8c90612b42565b80601f0160208091040260200160405190810160405280929190818152602001828054610fb890612b42565b80156110055780601f10610fda57610100808354040283529160200191611005565b820191906000526020600020905b815481529060010190602001808311610fe857829003601f168201915b5050505050815260200160058201805461101e90612b42565b80601f016020809104026020016040519081016040528092919081815260200182805461104a90612b42565b80156110975780601f1061106c57610100808354040283529160200191611097565b820191906000526020600020905b81548152906001019060200180831161107a57829003601f168201915b505050505081526020016006820180546110b090612b42565b80601f01602080910402602001604051908101604052809291908181526020018280546110dc90612b42565b80156111295780601f106110fe57610100808354040283529160200191611129565b820191906000526020600020905b81548152906001019060200180831161110c57829003601f168201915b5050505050815260200160078201805461114290612b42565b80601f016020809104026020016040519081016040528092919081815260200182805461116e90612b42565b80156111bb5780601f10611190576101008083540402835291602001916111bb565b820191906000526020600020905b81548152906001019060200180831161119e57829003601f168201915b505050505081526020016008820180546111d490612b42565b80601f016020809104026020016040519081016040528092919081815260200182805461120090612b42565b801561124d5780601f106112225761010080835404028352916020019161124d565b820191906000526020600020905b81548152906001019060200180831161123057829003601f168201915b5050505050815250509050919050565b61126e61126861147e565b8361153f565b6112ad576040517f08c379a00000000000000000000000000000000000000000000000000000000081526004016112a490612d09565b60405180910390fd5b6112b984848484611cae565b50505050565b60606112ca82611433565b60006112d4611d0a565b905060008151116112f4576040518060200160405280600081525061131f565b806112fe84611d21565b60405160200161130f92919061321d565b6040516020818303038152906040525b915050919050565b6000600560008473ffffffffffffffffffffffffffffffffffffffff1673ffffffffffffffffffffffffffffffffffffffff16815260200190815260200160002060008373ffffffffffffffffffffffffffffffffffffffff1673ffffffffffffffffffffffffffffffffffffffff16815260200190815260200160002060009054906101000a900460ff16905092915050565b600081600001549050919050565b60007f01ffc9a7000000000000000000000000000000000000000000000000000000007bffffffffffffffffffffffffffffffffffffffffffffffffffffffff1916827bffffffffffffffffffffffffffffffffffffffffffffffffffffffff1916149050919050565b61143c81611def565b61147b576040517f08c379a00000000000000000000000000000000000000000000000000000000081526004016114729061312f565b60405180910390fd5b50565b600033905090565b816004600083815260200190815260200160002060006101000a81548173ffffffffffffffffffffffffffffffffffffffff021916908373ffffffffffffffffffffffffffffffffffffffff160217905550808273ffffffffffffffffffffffffffffffffffffffff166114f983610b38565b73ffffffffffffffffffffffffffffffffffffffff167f8c5be1e5ebec7d5bd14f71427d1e84f3dd0314c0f7b2291e5b200ac8c7c3b92560405160405180910390a45050565b60008061154b83610b38565b90508073ffffffffffffffffffffffffffffffffffffffff168473ffffffffffffffffffffffffffffffffffffffff16148061158d575061158c8185611327565b5b806115cb57508373ffffffffffffffffffffffffffffffffffffffff166115b384610610565b73ffffffffffffffffffffffffffffffffffffffff16145b91505092915050565b8273ffffffffffffffffffffffffffffffffffffffff166115f482610b38565b73ffffffffffffffffffffffffffffffffffffffff161461164a576040517f08c379a0000000000000000000000000000000000000000000000000000000008152600401611641906132b3565b60405180910390fd5b600073ffffffffffffffffffffffffffffffffffffffff168273ffffffffffffffffffffffffffffffffffffffff16036116b9576040517f08c379a00000000000000000000000000000000000000000000000000000000081526004016116b090613345565b60405180910390fd5b6116c68383836001611e30565b8273ffffffffffffffffffffffffffffffffffffffff166116e682610b38565b73ffffffffffffffffffffffffffffffffffffffff161461173c576040517f08c379a0000000000000000000000000000000000000000000000000000000008152600401611733906132b3565b60405180910390fd5b6004600082815260200190815260200160002060006101000a81549073ffffffffffffffffffffffffffffffffffffffff02191690556001600360008573ffffffffffffffffffffffffffffffffffffffff1673ffffffffffffffffffffffffffffffffffffffff168152602001908152602001600020600082825403925050819055506001600360008473ffffffffffffffffffffffffffffffffffffffff1673ffffffffffffffffffffffffffffffffffffffff16815260200190815260200160002060008282540192505081905550816002600083815260200190815260200160002060006101000a81548173ffffffffffffffffffffffffffffffffffffffff021916908373ffffffffffffffffffffffffffffffffffffffff160217905550808273ffffffffffffffffffffffffffffffffffffffff168473ffffffffffffffffffffffffffffffffffffffff167fddf252ad1be2c89b69c2b068fc378daa952ba7f163c4a11628f55a4df523b3ef60405160405180910390a46118c88383836001611e36565b505050565b60006118d96006611e3c565b6118e360066113bb565b905090565b600073ffffffffffffffffffffffffffffffffffffffff168273ffffffffffffffffffffffffffffffffffffffff1603611957576040517f08c379a000000000000000000000000000000000000000000000000000000000815260040161194e906133b1565b60405180910390fd5b61196081611def565b156119a0576040517f08c379a00000000000000000000000000000000000000000000000000000000081526004016119979061341d565b60405180910390fd5b6119ae600083836001611e30565b6119b781611def565b156119f7576040517f08c379a00000000000000000000000000000000000000000000000000000000081526004016119ee9061341d565b60405180910390fd5b6001600360008473ffffffffffffffffffffffffffffffffffffffff1673ffffffffffffffffffffffffffffffffffffffff16815260200190815260200160002060008282540192505081905550816002600083815260200190815260200160002060006101000a81548173ffffffffffffffffffffffffffffffffffffffff021916908373ffffffffffffffffffffffffffffffffffffffff160217905550808273ffffffffffffffffffffffffffffffffffffffff16600073ffffffffffffffffffffffffffffffffffffffff167fddf252ad1be2c89b69c2b068fc378daa952ba7f163c4a11628f55a4df523b3ef60405160405180910390a4611b01600083836001611e36565b5050565b60006002600083815260200190815260200160002060009054906101000a900473ffffffffffffffffffffffffffffffffffffffff169050919050565b8173ffffffffffffffffffffffffffffffffffffffff168373ffffffffffffffffffffffffffffffffffffffff1603611bb0576040517f08c379a0000000000000000000000000000000000000000000000000000000008152600401611ba790613489565b60405180910390fd5b80600560008573ffffffffffffffffffffffffffffffffffffffff1673ffffffffffffffffffffffffffffffffffffffff16815260200190815260200160002060008473ffffffffffffffffffffffffffffffffffffffff1673ffffffffffffffffffffffffffffffffffffffff16815260200190815260200160002060006101000a81548160ff0219169083151502179055508173ffffffffffffffffffffffffffffffffffffffff168373ffffffffffffffffffffffffffffffffffffffff167f17307eab39ab6107e8899845ad3d59bd9653f200f220920489ca2b5937696c3183604051611ca19190612299565b60405180910390a3505050565b611cb98484846115d4565b611cc584848484611e52565b611d04576040517f08c379a0000000000000000000000000000000000000000000000000000000008152600401611cfb9061351b565b60405180910390fd5b50505050565b606060405180602001604052806000815250905090565b606060006001611d3084611fd9565b01905060008167ffffffffffffffff811115611d4f57611d4e6124e4565b5b6040519080825280601f01601f191660200182016040528015611d815781602001600182028036833780820191505090505b509050600082602001820190505b600115611de4578080600190039150507f3031323334353637383961626364656600000000000000000000000000000000600a86061a8153600a8581611dd857611dd761353b565b5b04945060008503611d8f575b819350505050919050565b60008073ffffffffffffffffffffffffffffffffffffffff16611e1183611b05565b73ffffffffffffffffffffffffffffffffffffffff1614159050919050565b50505050565b50505050565b6001816000016000828254019250508190555050565b6000611e738473ffffffffffffffffffffffffffffffffffffffff1661212c565b15611fcc578373ffffffffffffffffffffffffffffffffffffffff1663150b7a02611e9c61147e565b8786866040518563ffffffff1660e01b8152600401611ebe94939291906135bf565b6020604051808303816000875af1925050508015611efa57506040513d601f19601f82011682018060405250810190611ef79190613620565b60015b611f7c573d8060008114611f2a576040519150601f19603f3d011682016040523d82523d6000602084013e611f2f565b606091505b506000815103611f74576040517f08c379a0000000000000000000000000000000000000000000000000000000008152600401611f6b9061351b565b60405180910390fd5b805181602001fd5b63150b7a0260e01b7bffffffffffffffffffffffffffffffffffffffffffffffffffffffff1916817bffffffffffffffffffffffffffffffffffffffffffffffffffffffff191614915050611fd1565b600190505b949350505050565b600080600090507a184f03e93ff9f4daa797ed6e38ed64bf6a1f0100000000000000008310612037577a184f03e93ff9f4daa797ed6e38ed64bf6a1f010000000000000000838161202d5761202c61353b565b5b0492506040810190505b6d04ee2d6d415b85acef81000000008310612074576d04ee2d6d415b85acef8100000000838161206a5761206961353b565b5b0492506020810190505b662386f26fc1000083106120a357662386f26fc1000083816120995761209861353b565b5b0492506010810190505b6305f5e10083106120cc576305f5e10083816120c2576120c161353b565b5b0492506008810190505b61271083106120f15761271083816120e7576120e661353b565b5b0492506004810190505b60648310612114576064838161210a5761210961353b565b5b0492506002810190505b600a8310612123576001810190505b80915050919050565b6000808273ffffffffffffffffffffffffffffffffffffffff163b119050919050565b604051806101200160405280600073ffffffffffffffffffffffffffffffffffffffff16815260200160608152602001606081526020016060815260200160608152602001606081526020016060815260200160608152602001606081525090565b6000819050919050565b6121c4816121b1565b82525050565b60006020820190506121df60008301846121bb565b92915050565b6000604051905090565b600080fd5b600080fd5b60007fffffffff0000000000000000000000000000000000000000000000000000000082169050919050565b61222e816121f9565b811461223957600080fd5b50565b60008135905061224b81612225565b92915050565b600060208284031215612267576122666121ef565b5b60006122758482850161223c565b91505092915050565b60008115159050919050565b6122938161227e565b82525050565b60006020820190506122ae600083018461228a565b92915050565b600081519050919050565b600082825260208201905092915050565b60005b838110156122ee5780820151818401526020810190506122d3565b60008484015250505050565b6000601f19601f8301169050919050565b6000612316826122b4565b61232081856122bf565b93506123308185602086016122d0565b612339816122fa565b840191505092915050565b6000602082019050818103600083015261235e818461230b565b905092915050565b61236f816121b1565b811461237a57600080fd5b50565b60008135905061238c81612366565b92915050565b6000602082840312156123a8576123a76121ef565b5b60006123b68482850161237d565b91505092915050565b600073ffffffffffffffffffffffffffffffffffffffff82169050919050565b60006123ea826123bf565b9050919050565b6123fa816123df565b82525050565b600060208201905061241560008301846123f1565b92915050565b612424816123df565b811461242f57600080fd5b50565b6000813590506124418161241b565b92915050565b6000806040838503121561245e5761245d6121ef565b5b600061246c85828601612432565b925050602061247d8582860161237d565b9150509250929050565b6000806000606084860312156124a05761249f6121ef565b5b60006124ae86828701612432565b93505060206124bf86828701612432565b92505060406124d08682870161237d565b9150509250925092565b600080fd5b600080fd5b7f4e487b7100000000000000000000000000000000000000000000000000000000600052604160045260246000fd5b61251c826122fa565b810181811067ffffffffffffffff8211171561253b5761253a6124e4565b5b80604052505050565b600061254e6121e5565b905061255a8282612513565b919050565b600067ffffffffffffffff82111561257a576125796124e4565b5b612583826122fa565b9050602081019050919050565b82818337600083830152505050565b60006125b26125ad8461255f565b612544565b9050828152602081018484840111156125ce576125cd6124df565b5b6125d9848285612590565b509392505050565b600082601f8301126125f6576125f56124da565b5b813561260684826020860161259f565b91505092915050565b600080600080600080600080610100898b0312156126305761262f6121ef565b5b600089013567ffffffffffffffff81111561264e5761264d6121f4565b5b61265a8b828c016125e1565b985050602089013567ffffffffffffffff81111561267b5761267a6121f4565b5b6126878b828c016125e1565b975050604089013567ffffffffffffffff8111156126a8576126a76121f4565b5b6126b48b828c016125e1565b965050606089013567ffffffffffffffff8111156126d5576126d46121f4565b5b6126e18b828c016125e1565b955050608089013567ffffffffffffffff811115612702576127016121f4565b5b61270e8b828c016125e1565b94505060a089013567ffffffffffffffff81111561272f5761272e6121f4565b5b61273b8b828c016125e1565b93505060c089013567ffffffffffffffff81111561275c5761275b6121f4565b5b6127688b828c016125e1565b92505060e089013567ffffffffffffffff811115612789576127886121f4565b5b6127958b828c016125e1565b9150509295985092959890939650565b6000602082840312156127bb576127ba6121ef565b5b60006127c984828501612432565b91505092915050565b6127db8161227e565b81146127e657600080fd5b50565b6000813590506127f8816127d2565b92915050565b60008060408385031215612815576128146121ef565b5b600061282385828601612432565b9250506020612834858286016127e9565b9150509250929050565b612847816123df565b82525050565b600082825260208201905092915050565b6000612869826122b4565b612873818561284d565b93506128838185602086016122d0565b61288c816122fa565b840191505092915050565b6000610120830160008301516128b0600086018261283e565b50602083015184820360208601526128c8828261285e565b915050604083015184820360408601526128e2828261285e565b915050606083015184820360608601526128fc828261285e565b91505060808301518482036080860152612916828261285e565b91505060a083015184820360a0860152612930828261285e565b91505060c083015184820360c086015261294a828261285e565b91505060e083015184820360e0860152612964828261285e565b915050610100830151848203610100860152612980828261285e565b9150508091505092915050565b600060208201905081810360008301526129a78184612897565b905092915050565b600067ffffffffffffffff8211156129ca576129c96124e4565b5b6129d3826122fa565b9050602081019050919050565b60006129f36129ee846129af565b612544565b905082815260208101848484011115612a0f57612a0e6124df565b5b612a1a848285612590565b509392505050565b600082601f830112612a3757612a366124da565b5b8135612a478482602086016129e0565b91505092915050565b60008060008060808587031215612a6a57612a696121ef565b5b6000612a7887828801612432565b9450506020612a8987828801612432565b9350506040612a9a8782880161237d565b925050606085013567ffffffffffffffff811115612abb57612aba6121f4565b5b612ac787828801612a22565b91505092959194509250565b60008060408385031215612aea57612ae96121ef565b5b6000612af885828601612432565b9250506020612b0985828601612432565b9150509250929050565b7f4e487b7100000000000000000000000000000000000000000000000000000000600052602260045260246000fd5b60006002820490506001821680612b5a57607f821691505b602082108103612b6d57612b6c612b13565b5b50919050565b7f4552433732313a20617070726f76616c20746f2063757272656e74206f776e6560008201527f7200000000000000000000000000000000000000000000000000000000000000602082015250565b6000612bcf6021836122bf565b9150612bda82612b73565b604082019050919050565b60006020820190508181036000830152612bfe81612bc2565b9050919050565b7f4552433732313a20617070726f76652063616c6c6572206973206e6f7420746f60008201527f6b656e206f776e6572206f7220617070726f76656420666f7220616c6c000000602082015250565b6000612c61603d836122bf565b9150612c6c82612c05565b604082019050919050565b60006020820190508181036000830152612c9081612c54565b9050919050565b7f4552433732313a2063616c6c6572206973206e6f7420746f6b656e206f776e6560008201527f72206f7220617070726f76656400000000000000000000000000000000000000602082015250565b6000612cf3602d836122bf565b9150612cfe82612c97565b604082019050919050565b60006020820190508181036000830152612d2281612ce6565b9050919050565b60008190508160005260206000209050919050565b60006020601f8301049050919050565b600082821b905092915050565b600060088302612d8b7fffffffffffffffffffffffffffffffffffffffffffffffffffffffffffffffff82612d4e565b612d958683612d4e565b95508019841693508086168417925050509392505050565b6000819050919050565b6000612dd2612dcd612dc8846121b1565b612dad565b6121b1565b9050919050565b6000819050919050565b612dec83612db7565b612e00612df882612dd9565b848454612d5b565b825550505050565b600090565b612e15612e08565b612e20818484612de3565b505050565b5b81811015612e4457612e39600082612e0d565b600181019050612e26565b5050565b601f821115612e8957612e5a81612d29565b612e6384612d3e565b81016020851015612e72578190505b612e86612e7e85612d3e565b830182612e25565b50505b505050565b600082821c905092915050565b6000612eac60001984600802612e8e565b1980831691505092915050565b6000612ec58383612e9b565b9150826002028217905092915050565b612ede826122b4565b67ffffffffffffffff811115612ef757612ef66124e4565b5b612f018254612b42565b612f0c828285612e48565b600060209050601f831160018114612f3f5760008415612f2d578287015190505b612f378582612eb9565b865550612f9f565b601f198416612f4d86612d29565b60005b82811015612f7557848901518255600182019150602085019450602081019050612f50565b86831015612f925784890151612f8e601f891682612e9b565b8355505b6001600288020188555050505b505050505050565b7f4e487b7100000000000000000000000000000000000000000000000000000000600052601160045260246000fd5b6000612fe1826121b1565b91507fffffffffffffffffffffffffffffffffffffffffffffffffffffffffffffffff820361301357613012612fa7565b5b600182019050919050565b600061012082019050613034600083018c6123f1565b8181036020830152613046818b61230b565b9050818103604083015261305a818a61230b565b9050818103606083015261306e818961230b565b90508181036080830152613082818861230b565b905081810360a0830152613096818761230b565b905081810360c08301526130aa818661230b565b905081810360e08301526130be818561230b565b90508181036101008301526130d3818461230b565b90509a9950505050505050505050565b7f4552433732313a20696e76616c696420746f6b656e2049440000000000000000600082015250565b60006131196018836122bf565b9150613124826130e3565b602082019050919050565b600060208201905081810360008301526131488161310c565b9050919050565b7f4552433732313a2061646472657373207a65726f206973206e6f74206120766160008201527f6c6964206f776e65720000000000000000000000000000000000000000000000602082015250565b60006131ab6029836122bf565b91506131b68261314f565b604082019050919050565b600060208201905081810360008301526131da8161319e565b9050919050565b600081905092915050565b60006131f7826122b4565b61320181856131e1565b93506132118185602086016122d0565b80840191505092915050565b600061322982856131ec565b915061323582846131ec565b91508190509392505050565b7f4552433732313a207472616e736665722066726f6d20696e636f72726563742060008201527f6f776e6572000000000000000000000000000000000000000000000000000000602082015250565b600061329d6025836122bf565b91506132a882613241565b604082019050919050565b600060208201905081810360008301526132cc81613290565b9050919050565b7f4552433732313a207472616e7366657220746f20746865207a65726f2061646460008201527f7265737300000000000000000000000000000000000000000000000000000000602082015250565b600061332f6024836122bf565b915061333a826132d3565b604082019050919050565b6000602082019050818103600083015261335e81613322565b9050919050565b7f4552433732313a206d696e7420746f20746865207a65726f2061646472657373600082015250565b600061339b6020836122bf565b91506133a682613365565b602082019050919050565b600060208201905081810360008301526133ca8161338e565b9050919050565b7f4552433732313a20746f6b656e20616c7265616479206d696e74656400000000600082015250565b6000613407601c836122bf565b9150613412826133d1565b602082019050919050565b60006020820190508181036000830152613436816133fa565b9050919050565b7f4552433732313a20617070726f766520746f2063616c6c657200000000000000600082015250565b60006134736019836122bf565b915061347e8261343d565b602082019050919050565b600060208201905081810360008301526134a281613466565b9050919050565b7f4552433732313a207472616e7366657220746f206e6f6e20455243373231526560008201527f63656976657220696d706c656d656e7465720000000000000000000000000000602082015250565b60006135056032836122bf565b9150613510826134a9565b604082019050919050565b60006020820190508181036000830152613534816134f8565b9050919050565b7f4e487b7100000000000000000000000000000000000000000000000000000000600052601260045260246000fd5b600081519050919050565b600082825260208201905092915050565b60006135918261356a565b61359b8185613575565b93506135ab8185602086016122d0565b6135b4816122fa565b840191505092915050565b60006080820190506135d460008301876123f1565b6135e160208301866123f1565b6135ee60408301856121bb565b81810360608301526136008184613586565b905095945050505050565b60008151905061361a81612225565b92915050565b600060208284031215613636576136356121ef565b5b60006136448482850161360b565b9150509291505056fea2646970667358221220847bde0925a2c106d3b3b5181e0d726585f594f90055c223cc51c1532c0f3f9864736f6c63430008130033",
  "linkReferences": {},
  "deployedLinkReferences": {}
}