{
  "_format": "hh-sol-artifact-1",
  "contractName": "NFTEscrow",
  "sourceName": "contracts/NFTEscrow.sol",
  "abi": [
    {
      "inputs": [
        {
          "internalType": "address",
          "name": "_nftContractAddress",
          "type": "address"
        }
      ],
      "stateMutability": "nonpayable",
      "type": "constructor"
    },
    {
      "inputs": [],
      "name": "CheckApproveNFT",
      "outputs": [],
      "stateMutability": "view",
      "type": "function"
    },
    {
      "inputs": [
        {
          "internalType": "uint256",
          "name": "_seller_tokenId",
          "type": "uint256"
        }
      ],
      "name": "buy",
      "outputs": [],
      "stateMutability": "nonpayable",
      "type": "function"
    },
    {
      "inputs": [
        {
          "internalType": "uint256",
          "name": "_seller_tokenId",
          "type": "uint256"
        }
      ],
      "name": "cancel",
      "outputs": [],
      "stateMutability": "nonpayable",
      "type": "function"
    },
    {
      "inputs": [
        {
          "internalType": "uint256",
          "name": "_seller_tokenId",
          "type": "uint256"
        }
      ],
      "name": "complete",
      "outputs": [],
      "stateMutability": "nonpayable",
      "type": "function"
    },
    {
      "inputs": [
        {
          "internalType": "uint256",
          "name": "_seller_tokenId",
          "type": "uint256"
        },
        {
          "internalType": "address",
          "name": "_buyer",
          "type": "address"
        },
        {
          "internalType": "uint256",
          "name": "_buyer_tokenId",
          "type": "uint256"
        }
      ],
      "name": "deposit",
      "outputs": [],
      "stateMutability": "nonpayable",
      "type": "function"
    },
    {
      "inputs": [
        {
          "internalType": "address",
          "name": "",
          "type": "address"
        }
      ],
      "name": "escrowBalances",
      "outputs": [
        {
          "internalType": "uint256",
          "name": "",
          "type": "uint256"
        }
      ],
      "stateMutability": "view",
      "type": "function"
    },
    {
      "inputs": [
        {
          "internalType": "uint256",
          "name": "",
          "type": "uint256"
        }
      ],
      "name": "escrowItems",
      "outputs": [
        {
          "internalType": "uint256",
          "name": "seller_tokenId",
          "type": "uint256"
        },
        {
          "internalType": "address",
          "name": "seller",
          "type": "address"
        },
        {
          "internalType": "uint256",
          "name": "buyer_tokenId",
          "type": "uint256"
        },
        {
          "internalType": "address",
          "name": "buyer",
          "type": "address"
        },
        {
          "internalType": "bool",
          "name": "exists",
          "type": "bool"
        },
        {
          "internalType": "enum NFTEscrow.ItemState",
          "name": "state",
          "type": "uint8"
        }
      ],
      "stateMutability": "view",
      "type": "function"
    },
    {
      "inputs": [
        {
          "internalType": "uint256",
          "name": "_seller_tokenId",
          "type": "uint256"
        }
      ],
      "name": "getItem",
      "outputs": [
        {
          "components": [
            {
              "internalType": "uint256",
              "name": "seller_tokenId",
              "type": "uint256"
            },
            {
              "internalType": "address",
              "name": "seller",
              "type": "address"
            },
            {
              "internalType": "uint256",
              "name": "buyer_tokenId",
              "type": "uint256"
            },
            {
              "internalType": "address",
              "name": "buyer",
              "type": "address"
            },
            {
              "internalType": "bool",
              "name": "exists",
              "type": "bool"
            },
            {
              "internalType": "enum NFTEscrow.ItemState",
              "name": "state",
              "type": "uint8"
            }
          ],
          "internalType": "struct NFTEscrow.Item",
          "name": "",
          "type": "tuple"
        }
      ],
      "stateMutability": "view",
      "type": "function"
    },
    {
      "inputs": [],
      "name": "nftContract",
      "outputs": [
        {
          "internalType": "contract IERC721",
          "name": "",
          "type": "address"
        }
      ],
      "stateMutability": "view",
      "type": "function"
    },
    {
      "inputs": [
        {
          "internalType": "address",
          "name": "",
          "type": "address"
        },
        {
          "internalType": "address",
          "name": "",
          "type": "address"
        },
        {
          "internalType": "uint256",
          "name": "",
          "type": "uint256"
        },
        {
          "internalType": "bytes",
          "name": "",
          "type": "bytes"
        }
      ],
      "name": "onERC721Received",
      "outputs": [
        {
          "internalType": "bytes4",
          "name": "",
          "type": "bytes4"
        }
      ],
      "stateMutability": "nonpayable",
      "type": "function"
    }
  ],
  "bytecode": "0x60806040523480156200001157600080fd5b5060405162001e3f38038062001e3f8339818101604052810190620000379190620000e8565b806000806101000a81548173ffffffffffffffffffffffffffffffffffffffff021916908373ffffffffffffffffffffffffffffffffffffffff160217905550506200011a565b600080fd5b600073ffffffffffffffffffffffffffffffffffffffff82169050919050565b6000620000b08262000083565b9050919050565b620000c281620000a3565b8114620000ce57600080fd5b50565b600081519050620000e281620000b7565b92915050565b6000602082840312156200010157620001006200007e565b5b60006200011184828501620000d1565b91505092915050565b611d15806200012a6000396000f3fe608060405234801561001057600080fd5b506004361061009e5760003560e01c8063971d852f11610066578063971d852f14610184578063bc157ac1146101a0578063d56d229d146101bc578063d96a094a146101da578063e77393f7146101f65761009e565b8063150b7a02146100a35780632bd3d908146100d35780633129e7731461010857806340e58ee5146101385780639672ba5714610154575b600080fd5b6100bd60048036038101906100b891906113ff565b610200565b6040516100ca91906114bd565b60405180910390f35b6100ed60048036038101906100e891906114d8565b610214565b6040516100ff969594939291906115b5565b60405180910390f35b610122600480360381019061011d91906114d8565b6102aa565b60405161012f91906116cd565b60405180910390f35b610152600480360381019061014d91906114d8565b6103ed565b005b61016e600480360381019061016991906116e8565b61082b565b60405161017b9190611715565b60405180910390f35b61019e600480360381019061019991906114d8565b610843565b005b6101ba60048036038101906101b59190611730565b610b23565b005b6101c4610ca7565b6040516101d191906117e2565b60405180910390f35b6101f460048036038101906101ef91906114d8565b610ccb565b005b6101fe6110be565b005b600063150b7a0260e01b9050949350505050565b60026020528060005260406000206000915090508060000154908060010160009054906101000a900473ffffffffffffffffffffffffffffffffffffffff16908060020154908060030160009054906101000a900473ffffffffffffffffffffffffffffffffffffffff16908060030160149054906101000a900460ff16908060030160159054906101000a900460ff16905086565b6102b261119b565b600260008381526020019081526020016000206040518060c0016040529081600082015481526020016001820160009054906101000a900473ffffffffffffffffffffffffffffffffffffffff1673ffffffffffffffffffffffffffffffffffffffff1673ffffffffffffffffffffffffffffffffffffffff168152602001600282015481526020016003820160009054906101000a900473ffffffffffffffffffffffffffffffffffffffff1673ffffffffffffffffffffffffffffffffffffffff1673ffffffffffffffffffffffffffffffffffffffff1681526020016003820160149054906101000a900460ff161515151581526020016003820160159054906101000a900460ff1660028111156103d0576103cf61153e565b5b60028111156103e2576103e161153e565b5b815250509050919050565b60006002600083815260200190815260200160002090508060030160149054906101000a900460ff16610455576040517f08c379a000000000000000000000000000000000000000000000000000000000815260040161044c9061185a565b60405180910390fd5b600060028111156104695761046861153e565b5b8160030160159054906101000a900460ff16600281111561048d5761048c61153e565b5b146104cd576040517f08c379a00000000000000000000000000000000000000000000000000000000081526004016104c4906118c6565b60405180910390fd5b8060010160009054906101000a900473ffffffffffffffffffffffffffffffffffffffff1673ffffffffffffffffffffffffffffffffffffffff163373ffffffffffffffffffffffffffffffffffffffff161461055f576040517f08c379a000000000000000000000000000000000000000000000000000000000815260040161055690611958565b60405180910390fd5b60008054906101000a900473ffffffffffffffffffffffffffffffffffffffff1673ffffffffffffffffffffffffffffffffffffffff166342842e0e308360010160009054906101000a900473ffffffffffffffffffffffffffffffffffffffff1684600001546040518463ffffffff1660e01b81526004016105e493929190611978565b600060405180830381600087803b1580156105fe57600080fd5b505af1158015610612573d6000803e3d6000fd5b5050505060008054906101000a900473ffffffffffffffffffffffffffffffffffffffff1673ffffffffffffffffffffffffffffffffffffffff166342842e0e308360030160009054906101000a900473ffffffffffffffffffffffffffffffffffffffff1684600201546040518463ffffffff1660e01b815260040161069b93929190611978565b600060405180830381600087803b1580156106b557600080fd5b505af11580156106c9573d6000803e3d6000fd5b505050506000600160008360010160009054906101000a900473ffffffffffffffffffffffffffffffffffffffff1673ffffffffffffffffffffffffffffffffffffffff1673ffffffffffffffffffffffffffffffffffffffff1681526020019081526020016000205490506000600160008460010160009054906101000a900473ffffffffffffffffffffffffffffffffffffffff1673ffffffffffffffffffffffffffffffffffffffff1673ffffffffffffffffffffffffffffffffffffffff168152602001908152602001600020819055508160010160009054906101000a900473ffffffffffffffffffffffffffffffffffffffff1673ffffffffffffffffffffffffffffffffffffffff166108fc829081150290604051600060405180830381858888f19350505050158015610808573d6000803e3d6000fd5b5060008260030160146101000a81548160ff021916908315150217905550505050565b60016020528060005260406000206000915090505481565b60006002600083815260200190815260200160002090508060030160149054906101000a900460ff166108ab576040517f08c379a00000000000000000000000000000000000000000000000000000000081526004016108a29061185a565b60405180910390fd5b600160028111156108bf576108be61153e565b5b8160030160159054906101000a900460ff1660028111156108e3576108e261153e565b5b14610923576040517f08c379a000000000000000000000000000000000000000000000000000000000815260040161091a906119fb565b60405180910390fd5b8060030160009054906101000a900473ffffffffffffffffffffffffffffffffffffffff1673ffffffffffffffffffffffffffffffffffffffff163373ffffffffffffffffffffffffffffffffffffffff16146109b5576040517f08c379a00000000000000000000000000000000000000000000000000000000081526004016109ac90611a8d565b60405180910390fd5b6000600160008360010160009054906101000a900473ffffffffffffffffffffffffffffffffffffffff1673ffffffffffffffffffffffffffffffffffffffff1673ffffffffffffffffffffffffffffffffffffffff1681526020019081526020016000205490506000600160008460010160009054906101000a900473ffffffffffffffffffffffffffffffffffffffff1673ffffffffffffffffffffffffffffffffffffffff1673ffffffffffffffffffffffffffffffffffffffff168152602001908152602001600020819055508160010160009054906101000a900473ffffffffffffffffffffffffffffffffffffffff1673ffffffffffffffffffffffffffffffffffffffff166108fc829081150290604051600060405180830381858888f19350505050158015610af0573d6000803e3d6000fd5b5060028260030160156101000a81548160ff02191690836002811115610b1957610b1861153e565b5b0217905550505050565b610b2b6110be565b6040518060c001604052808481526020013373ffffffffffffffffffffffffffffffffffffffff1681526020018281526020018373ffffffffffffffffffffffffffffffffffffffff16815260200160011515815260200160006002811115610b9757610b9661153e565b5b815250600260008581526020019081526020016000206000820151816000015560208201518160010160006101000a81548173ffffffffffffffffffffffffffffffffffffffff021916908373ffffffffffffffffffffffffffffffffffffffff1602179055506040820151816002015560608201518160030160006101000a81548173ffffffffffffffffffffffffffffffffffffffff021916908373ffffffffffffffffffffffffffffffffffffffff16021790555060808201518160030160146101000a81548160ff02191690831515021790555060a08201518160030160156101000a81548160ff02191690836002811115610c9a57610c9961153e565b5b0217905550905050505050565b60008054906101000a900473ffffffffffffffffffffffffffffffffffffffff1681565b60006002600083815260200190815260200160002090508060030160149054906101000a900460ff16610d33576040517f08c379a0000000000000000000000000000000000000000000000000000000008152600401610d2a9061185a565b60405180910390fd5b60006002811115610d4757610d4661153e565b5b8160030160159054906101000a900460ff166002811115610d6b57610d6a61153e565b5b14610dab576040517f08c379a0000000000000000000000000000000000000000000000000000000008152600401610da290611af9565b60405180910390fd5b3373ffffffffffffffffffffffffffffffffffffffff168160010160009054906101000a900473ffffffffffffffffffffffffffffffffffffffff1673ffffffffffffffffffffffffffffffffffffffff1603610e3d576040517f08c379a0000000000000000000000000000000000000000000000000000000008152600401610e3490611b65565b60405180910390fd5b3373ffffffffffffffffffffffffffffffffffffffff168160030160009054906101000a900473ffffffffffffffffffffffffffffffffffffffff1673ffffffffffffffffffffffffffffffffffffffff1614610ecf576040517f08c379a0000000000000000000000000000000000000000000000000000000008152600401610ec690611bd1565b60405180910390fd5b610ed76110be565b60008054906101000a900473ffffffffffffffffffffffffffffffffffffffff1673ffffffffffffffffffffffffffffffffffffffff166342842e0e8260010160009054906101000a900473ffffffffffffffffffffffffffffffffffffffff168360030160009054906101000a900473ffffffffffffffffffffffffffffffffffffffff1684600001546040518463ffffffff1660e01b8152600401610f8093929190611978565b600060405180830381600087803b158015610f9a57600080fd5b505af1158015610fae573d6000803e3d6000fd5b5050505060008054906101000a900473ffffffffffffffffffffffffffffffffffffffff1673ffffffffffffffffffffffffffffffffffffffff166342842e0e8260030160009054906101000a900473ffffffffffffffffffffffffffffffffffffffff168360010160009054906101000a900473ffffffffffffffffffffffffffffffffffffffff1684600201546040518463ffffffff1660e01b815260040161105b93929190611978565b600060405180830381600087803b15801561107557600080fd5b505af1158015611089573d6000803e3d6000fd5b5050505060018160030160156101000a81548160ff021916908360028111156110b5576110b461153e565b5b02179055505050565b60008054906101000a900473ffffffffffffffffffffffffffffffffffffffff1673ffffffffffffffffffffffffffffffffffffffff1663e985e9c533306040518363ffffffff1660e01b8152600401611119929190611bf1565b602060405180830381865afa158015611136573d6000803e3d6000fd5b505050506040513d601f19601f8201168201806040525081019061115a9190611c46565b611199576040517f08c379a000000000000000000000000000000000000000000000000000000000815260040161119090611cbf565b60405180910390fd5b565b6040518060c0016040528060008152602001600073ffffffffffffffffffffffffffffffffffffffff16815260200160008152602001600073ffffffffffffffffffffffffffffffffffffffff1681526020016000151581526020016000600281111561120b5761120a61153e565b5b81525090565b6000604051905090565b600080fd5b600080fd5b600073ffffffffffffffffffffffffffffffffffffffff82169050919050565b600061125082611225565b9050919050565b61126081611245565b811461126b57600080fd5b50565b60008135905061127d81611257565b92915050565b6000819050919050565b61129681611283565b81146112a157600080fd5b50565b6000813590506112b38161128d565b92915050565b600080fd5b600080fd5b6000601f19601f8301169050919050565b7f4e487b7100000000000000000000000000000000000000000000000000000000600052604160045260246000fd5b61130c826112c3565b810181811067ffffffffffffffff8211171561132b5761132a6112d4565b5b80604052505050565b600061133e611211565b905061134a8282611303565b919050565b600067ffffffffffffffff82111561136a576113696112d4565b5b611373826112c3565b9050602081019050919050565b82818337600083830152505050565b60006113a261139d8461134f565b611334565b9050828152602081018484840111156113be576113bd6112be565b5b6113c9848285611380565b509392505050565b600082601f8301126113e6576113e56112b9565b5b81356113f684826020860161138f565b91505092915050565b600080600080608085870312156114195761141861121b565b5b60006114278782880161126e565b94505060206114388782880161126e565b9350506040611449878288016112a4565b925050606085013567ffffffffffffffff81111561146a57611469611220565b5b611476878288016113d1565b91505092959194509250565b60007fffffffff0000000000000000000000000000000000000000000000000000000082169050919050565b6114b781611482565b82525050565b60006020820190506114d260008301846114ae565b92915050565b6000602082840312156114ee576114ed61121b565b5b60006114fc848285016112a4565b91505092915050565b61150e81611283565b82525050565b61151d81611245565b82525050565b60008115159050919050565b61153881611523565b82525050565b7f4e487b7100000000000000000000000000000000000000000000000000000000600052602160045260246000fd5b6003811061157e5761157d61153e565b5b50565b600081905061158f8261156d565b919050565b600061159f82611581565b9050919050565b6115af81611594565b82525050565b600060c0820190506115ca6000830189611505565b6115d76020830188611514565b6115e46040830187611505565b6115f16060830186611514565b6115fe608083018561152f565b61160b60a08301846115a6565b979650505050505050565b61161f81611283565b82525050565b61162e81611245565b82525050565b61163d81611523565b82525050565b61164c81611594565b82525050565b60c0820160008201516116686000850182611616565b50602082015161167b6020850182611625565b50604082015161168e6040850182611616565b5060608201516116a16060850182611625565b5060808201516116b46080850182611634565b5060a08201516116c760a0850182611643565b50505050565b600060c0820190506116e26000830184611652565b92915050565b6000602082840312156116fe576116fd61121b565b5b600061170c8482850161126e565b91505092915050565b600060208201905061172a6000830184611505565b92915050565b6000806000606084860312156117495761174861121b565b5b6000611757868287016112a4565b93505060206117688682870161126e565b9250506040611779868287016112a4565b9150509250925092565b6000819050919050565b60006117a86117a361179e84611225565b611783565b611225565b9050919050565b60006117ba8261178d565b9050919050565b60006117cc826117af565b9050919050565b6117dc816117c1565b82525050565b60006020820190506117f760008301846117d3565b92915050565b600082825260208201905092915050565b7f4974656d20646f6573206e6f7420657869737400000000000000000000000000600082015250565b60006118446013836117fd565b915061184f8261180e565b602082019050919050565b6000602082019050818103600083015261187381611837565b9050919050565b7f4974656d2063616e6e6f742062652063616e63656c6564000000000000000000600082015250565b60006118b06017836117fd565b91506118bb8261187a565b602082019050919050565b600060208201905081810360008301526118df816118a3565b9050919050565b7f4f6e6c79207468652073656c6c65722063616e2063616e63656c20746865206960008201527f74656d0000000000000000000000000000000000000000000000000000000000602082015250565b60006119426023836117fd565b915061194d826118e6565b604082019050919050565b6000602082019050818103600083015261197181611935565b9050919050565b600060608201905061198d6000830186611514565b61199a6020830185611514565b6119a76040830184611505565b949350505050565b7f4974656d206973206e6f74206177616974696e672064656c6976657279000000600082015250565b60006119e5601d836117fd565b91506119f0826119af565b602082019050919050565b60006020820190508181036000830152611a14816119d8565b9050919050565b7f4f6e6c79207468652062757965722063616e20636f6d706c657465207468652060008201527f7472616e73616374696f6e000000000000000000000000000000000000000000602082015250565b6000611a77602b836117fd565b9150611a8282611a1b565b604082019050919050565b60006020820190508181036000830152611aa681611a6a565b9050919050565b7f4974656d206973206e6f7420666f722073616c65000000000000000000000000600082015250565b6000611ae36014836117fd565b9150611aee82611aad565b602082019050919050565b60006020820190508181036000830152611b1281611ad6565b9050919050565b7f596f752063616e27742062757920796f7572206f776e204e4654000000000000600082015250565b6000611b4f601a836117fd565b9150611b5a82611b19565b602082019050919050565b60006020820190508181036000830152611b7e81611b42565b9050919050565b7f596f7520617265206e6f742074686520696e74656e6465642062757965720000600082015250565b6000611bbb601e836117fd565b9150611bc682611b85565b602082019050919050565b60006020820190508181036000830152611bea81611bae565b9050919050565b6000604082019050611c066000830185611514565b611c136020830184611514565b9392505050565b611c2381611523565b8114611c2e57600080fd5b50565b600081519050611c4081611c1a565b92915050565b600060208284031215611c5c57611c5b61121b565b5b6000611c6a84828501611c31565b91505092915050565b7f596f7520646f6e2774206f776e20417070726f76652074686973204e46540000600082015250565b6000611ca9601e836117fd565b9150611cb482611c73565b602082019050919050565b60006020820190508181036000830152611cd881611c9c565b905091905056fea2646970667358221220aab6c7c61bde4042a1c944ab39ba235c68e7a4dec1d56a24b9ca2ad556e0b12e64736f6c63430008130033",
  "linkReferences": {},
  "deployedLinkReferences": {}
}