{
  "_format": "hh-sol-artifact-1",
  "contractName": "SimpleCardNFTFactory",
  "sourceName": "contracts/SimpleCardNFTFactory.sol",
  "abi": [
    {
      "inputs": [],
      "stateMutability": "nonpayable",
      "type": "constructor"
    },
    {
      "inputs": [],
      "name": "No_Simple_Card_NFTs_To_Transfer",
      "type": "error"
    },
    {
      "anonymous": false,
      "inputs": [
        {
          "indexed": true,
          "internalType": "address",
          "name": "owner",
          "type": "address"
        },
        {
          "indexed": true,
          "internalType": "address",
          "name": "approved",
          "type": "address"
        },
        {
          "indexed": true,
          "internalType": "uint256",
          "name": "tokenId",
          "type": "uint256"
        }
      ],
      "name": "Approval",
      "type": "event"
    },
    {
      "anonymous": false,
      "inputs": [
        {
          "indexed": true,
          "internalType": "address",
          "name": "owner",
          "type": "address"
        },
        {
          "indexed": true,
          "internalType": "address",
          "name": "operator",
          "type": "address"
        },
        {
          "indexed": false,
          "internalType": "bool",
          "name": "approved",
          "type": "bool"
        }
      ],
      "name": "ApprovalForAll",
      "type": "event"
    },
    {
      "anonymous": false,
      "inputs": [
        {
          "indexed": true,
          "internalType": "address",
          "name": "issuer",
          "type": "address"
        },
        {
          "indexed": false,
          "internalType": "string",
          "name": "name",
          "type": "string"
        },
        {
          "indexed": false,
          "internalType": "string",
          "name": "age",
          "type": "string"
        },
        {
          "indexed": false,
          "internalType": "string",
          "name": "residence",
          "type": "string"
        },
        {
          "indexed": false,
          "internalType": "string",
          "name": "runningGoal",
          "type": "string"
        },
        {
          "indexed": false,
          "internalType": "string",
          "name": "runningSkill",
          "type": "string"
        }
      ],
      "name": "SimpleCardInfoRegistered",
      "type": "event"
    },
    {
      "anonymous": false,
      "inputs": [
        {
          "indexed": true,
          "internalType": "uint256",
          "name": "tokenId",
          "type": "uint256"
        },
        {
          "indexed": false,
          "internalType": "address",
          "name": "issuer",
          "type": "address"
        },
        {
          "indexed": false,
          "internalType": "uint256",
          "name": "amountOfTokenOwnedByIssuer",
          "type": "uint256"
        }
      ],
      "name": "SimpleCardNFTMinted",
      "type": "event"
    },
    {
      "anonymous": false,
      "inputs": [
        {
          "indexed": true,
          "internalType": "address",
          "name": "to",
          "type": "address"
        },
        {
          "indexed": false,
          "internalType": "address",
          "name": "from",
          "type": "address"
        },
        {
          "indexed": false,
          "internalType": "uint256",
          "name": "tokenId",
          "type": "uint256"
        },
        {
          "indexed": false,
          "internalType": "uint256",
          "name": "amountOfTokenOwnedByIssuer",
          "type": "uint256"
        }
      ],
      "name": "SimpleCardNFTTransfered",
      "type": "event"
    },
    {
      "anonymous": false,
      "inputs": [
        {
          "indexed": true,
          "internalType": "address",
          "name": "from",
          "type": "address"
        },
        {
          "indexed": true,
          "internalType": "address",
          "name": "to",
          "type": "address"
        },
        {
          "indexed": true,
          "internalType": "uint256",
          "name": "tokenId",
          "type": "uint256"
        }
      ],
      "name": "Transfer",
      "type": "event"
    },
    {
      "inputs": [
        {
          "internalType": "address",
          "name": "to",
          "type": "address"
        },
        {
          "internalType": "uint256",
          "name": "tokenId",
          "type": "uint256"
        }
      ],
      "name": "approve",
      "outputs": [],
      "stateMutability": "nonpayable",
      "type": "function"
    },
    {
      "inputs": [
        {
          "internalType": "address",
          "name": "owner",
          "type": "address"
        }
      ],
      "name": "balanceOf",
      "outputs": [
        {
          "internalType": "uint256",
          "name": "",
          "type": "uint256"
        }
      ],
      "stateMutability": "view",
      "type": "function"
    },
    {
      "inputs": [],
      "name": "getAllTokenURIs",
      "outputs": [
        {
          "internalType": "string[]",
          "name": "",
          "type": "string[]"
        }
      ],
      "stateMutability": "view",
      "type": "function"
    },
    {
      "inputs": [
        {
          "internalType": "address",
          "name": "issuer",
          "type": "address"
        }
      ],
      "name": "getAmountOfTokenOwnedByIssuer",
      "outputs": [
        {
          "internalType": "uint256",
          "name": "",
          "type": "uint256"
        }
      ],
      "stateMutability": "view",
      "type": "function"
    },
    {
      "inputs": [
        {
          "internalType": "uint256",
          "name": "tokenId",
          "type": "uint256"
        }
      ],
      "name": "getApproved",
      "outputs": [
        {
          "internalType": "address",
          "name": "",
          "type": "address"
        }
      ],
      "stateMutability": "view",
      "type": "function"
    },
    {
      "inputs": [
        {
          "internalType": "address",
          "name": "issuer",
          "type": "address"
        }
      ],
      "name": "getSimpleCardInfo",
      "outputs": [
        {
          "components": [
            {
              "internalType": "string",
              "name": "name",
              "type": "string"
            },
            {
              "internalType": "string",
              "name": "age",
              "type": "string"
            },
            {
              "internalType": "string",
              "name": "residence",
              "type": "string"
            },
            {
              "internalType": "string",
              "name": "runningGoal",
              "type": "string"
            },
            {
              "internalType": "string",
              "name": "runningSkill",
              "type": "string"
            },
            {
              "internalType": "address",
              "name": "issuer",
              "type": "address"
            }
          ],
          "internalType": "struct SimpleCardNFTFactory.SimpleCardInfo",
          "name": "",
          "type": "tuple"
        }
      ],
      "stateMutability": "view",
      "type": "function"
    },
    {
      "inputs": [
        {
          "internalType": "uint256",
          "name": "_tokenId",
          "type": "uint256"
        }
      ],
      "name": "getTokenURI",
      "outputs": [
        {
          "internalType": "string",
          "name": "",
          "type": "string"
        }
      ],
      "stateMutability": "view",
      "type": "function"
    },
    {
      "inputs": [
        {
          "internalType": "address",
          "name": "owner",
          "type": "address"
        },
        {
          "internalType": "address",
          "name": "operator",
          "type": "address"
        }
      ],
      "name": "isApprovedForAll",
      "outputs": [
        {
          "internalType": "bool",
          "name": "",
          "type": "bool"
        }
      ],
      "stateMutability": "view",
      "type": "function"
    },
    {
      "inputs": [
        {
          "internalType": "string",
          "name": "newTokenURI",
          "type": "string"
        }
      ],
      "name": "mintCheckMultiple",
      "outputs": [],
      "stateMutability": "payable",
      "type": "function"
    },
    {
      "inputs": [],
      "name": "name",
      "outputs": [
        {
          "internalType": "string",
          "name": "",
          "type": "string"
        }
      ],
      "stateMutability": "view",
      "type": "function"
    },
    {
      "inputs": [
        {
          "internalType": "uint256",
          "name": "tokenId",
          "type": "uint256"
        }
      ],
      "name": "ownerOf",
      "outputs": [
        {
          "internalType": "address",
          "name": "",
          "type": "address"
        }
      ],
      "stateMutability": "view",
      "type": "function"
    },
    {
      "inputs": [
        {
          "internalType": "string",
          "name": "_name",
          "type": "string"
        },
        {
          "internalType": "string",
          "name": "_age",
          "type": "string"
        },
        {
          "internalType": "string",
          "name": "_residence",
          "type": "string"
        },
        {
          "internalType": "string",
          "name": "_runningGoal",
          "type": "string"
        },
        {
          "internalType": "string",
          "name": "_runningSkill",
          "type": "string"
        }
      ],
      "name": "registerSimpleCardInfo",
      "outputs": [],
      "stateMutability": "nonpayable",
      "type": "function"
    },
    {
      "inputs": [
        {
          "internalType": "address",
          "name": "from",
          "type": "address"
        },
        {
          "internalType": "address",
          "name": "to",
          "type": "address"
        },
        {
          "internalType": "uint256",
          "name": "tokenId",
          "type": "uint256"
        }
      ],
      "name": "safeTransferFrom",
      "outputs": [],
      "stateMutability": "nonpayable",
      "type": "function"
    },
    {
      "inputs": [
        {
          "internalType": "address",
          "name": "from",
          "type": "address"
        },
        {
          "internalType": "address",
          "name": "to",
          "type": "address"
        },
        {
          "internalType": "uint256",
          "name": "tokenId",
          "type": "uint256"
        },
        {
          "internalType": "bytes",
          "name": "data",
          "type": "bytes"
        }
      ],
      "name": "safeTransferFrom",
      "outputs": [],
      "stateMutability": "nonpayable",
      "type": "function"
    },
    {
      "inputs": [
        {
          "internalType": "address",
          "name": "operator",
          "type": "address"
        },
        {
          "internalType": "bool",
          "name": "approved",
          "type": "bool"
        }
      ],
      "name": "setApprovalForAll",
      "outputs": [],
      "stateMutability": "nonpayable",
      "type": "function"
    },
    {
      "inputs": [
        {
          "internalType": "bytes4",
          "name": "interfaceId",
          "type": "bytes4"
        }
      ],
      "name": "supportsInterface",
      "outputs": [
        {
          "internalType": "bool",
          "name": "",
          "type": "bool"
        }
      ],
      "stateMutability": "view",
      "type": "function"
    },
    {
      "inputs": [],
      "name": "symbol",
      "outputs": [
        {
          "internalType": "string",
          "name": "",
          "type": "string"
        }
      ],
      "stateMutability": "view",
      "type": "function"
    },
    {
      "inputs": [],
      "name": "tokenId",
      "outputs": [
        {
          "internalType": "uint256",
          "name": "",
          "type": "uint256"
        }
      ],
      "stateMutability": "view",
      "type": "function"
    },
    {
      "inputs": [
        {
          "internalType": "uint256",
          "name": "tokenId",
          "type": "uint256"
        }
      ],
      "name": "tokenURI",
      "outputs": [
        {
          "internalType": "string",
          "name": "",
          "type": "string"
        }
      ],
      "stateMutability": "view",
      "type": "function"
    },
    {
      "inputs": [
        {
          "internalType": "address",
          "name": "from",
          "type": "address"
        },
        {
          "internalType": "address",
          "name": "to",
          "type": "address"
        },
        {
          "internalType": "uint256",
          "name": "tokenId",
          "type": "uint256"
        }
      ],
      "name": "transferFrom",
      "outputs": [],
      "stateMutability": "nonpayable",
      "type": "function"
    },
    {
      "inputs": [
        {
          "internalType": "address",
          "name": "to",
          "type": "address"
        }
      ],
      "name": "transferSimpleCardNFT",
      "outputs": [],
      "stateMutability": "nonpayable",
      "type": "function"
    },
    {
      "inputs": [],
      "name": "withdraw",
      "outputs": [],
      "stateMutability": "nonpayable",
      "type": "function"
    }
  ],
  "bytecode": "0x60806040523480156200001157600080fd5b506040518060400160405280600d81526020017f53696d706c65436172644e4654000000000000000000000000000000000000008152506040518060400160405280600581526020017f534361726400000000000000000000000000000000000000000000000000000081525081600090816200008f919062000365565b508060019081620000a1919062000365565b50505033600760006101000a81548173ffffffffffffffffffffffffffffffffffffffff021916908373ffffffffffffffffffffffffffffffffffffffff1602179055506200044c565b600081519050919050565b7f4e487b7100000000000000000000000000000000000000000000000000000000600052604160045260246000fd5b7f4e487b7100000000000000000000000000000000000000000000000000000000600052602260045260246000fd5b600060028204905060018216806200016d57607f821691505b60208210810362000183576200018262000125565b5b50919050565b60008190508160005260206000209050919050565b60006020601f8301049050919050565b600082821b905092915050565b600060088302620001ed7fffffffffffffffffffffffffffffffffffffffffffffffffffffffffffffffff82620001ae565b620001f98683620001ae565b95508019841693508086168417925050509392505050565b6000819050919050565b6000819050919050565b600062000246620002406200023a8462000211565b6200021b565b62000211565b9050919050565b6000819050919050565b620002628362000225565b6200027a62000271826200024d565b848454620001bb565b825550505050565b600090565b6200029162000282565b6200029e81848462000257565b505050565b5b81811015620002c657620002ba60008262000287565b600181019050620002a4565b5050565b601f8211156200031557620002df8162000189565b620002ea846200019e565b81016020851015620002fa578190505b6200031262000309856200019e565b830182620002a3565b50505b505050565b600082821c905092915050565b60006200033a600019846008026200031a565b1980831691505092915050565b600062000355838362000327565b9150826002028217905092915050565b6200037082620000eb565b67ffffffffffffffff8111156200038c576200038b620000f6565b5b62000398825462000154565b620003a5828285620002ca565b600060209050601f831160018114620003dd5760008415620003c8578287015190505b620003d4858262000347565b86555062000444565b601f198416620003ed8662000189565b60005b828110156200041757848901518255600182019150602085019450602081019050620003f0565b8683101562000437578489015162000433601f89168262000327565b8355505b6001600288020188555050505b505050505050565b614cc3806200045c6000396000f3fe6080604052600436106101355760003560e01c806342842e0e116100ab57806395d89b411161006f57806395d89b411461043d578063a22cb46514610468578063b88d4fde14610491578063c87b56dd146104ba578063de9a430d146104f7578063e985e9c51461052057610135565b806342842e0e14610332578063537e83bf1461035b5780636352211e1461039857806370a08231146103d557806389fde7af1461041257610135565b8063143d2431116100fd578063143d24311461023157806317d70f7c1461024d57806323b872dd14610278578063391af65a146102a15780633bb3a24d146102de5780633ccfd60b1461031b57610135565b806301ffc9a71461013a57806306fdde0314610177578063081812fc146101a2578063095ea7b3146101df578063122c2ae614610208575b600080fd5b34801561014657600080fd5b50610161600480360381019061015c919061354b565b61055d565b60405161016e9190613593565b60405180910390f35b34801561018357600080fd5b5061018c61063f565b604051610199919061363e565b60405180910390f35b3480156101ae57600080fd5b506101c960048036038101906101c49190613696565b6106d1565b6040516101d69190613704565b60405180910390f35b3480156101eb57600080fd5b506102066004803603810190610201919061374b565b610717565b005b34801561021457600080fd5b5061022f600480360381019061022a91906138c0565b61082e565b005b61024b600480360381019061024691906139c7565b6109cb565b005b34801561025957600080fd5b50610262610f11565b60405161026f9190613a1f565b60405180910390f35b34801561028457600080fd5b5061029f600480360381019061029a9190613a3a565b610f17565b005b3480156102ad57600080fd5b506102c860048036038101906102c39190613a8d565b610f77565b6040516102d59190613bb8565b60405180910390f35b3480156102ea57600080fd5b5061030560048036038101906103009190613696565b611300565b604051610312919061363e565b60405180910390f35b34801561032757600080fd5b506103306113a5565b005b34801561033e57600080fd5b5061035960048036038101906103549190613a3a565b611491565b005b34801561036757600080fd5b50610382600480360381019061037d9190613a8d565b6114b1565b60405161038f9190613a1f565b60405180910390f35b3480156103a457600080fd5b506103bf60048036038101906103ba9190613696565b6114fa565b6040516103cc9190613704565b60405180910390f35b3480156103e157600080fd5b506103fc60048036038101906103f79190613a8d565b611580565b6040516104099190613a1f565b60405180910390f35b34801561041e57600080fd5b50610427611637565b6040516104349190613c9c565b60405180910390f35b34801561044957600080fd5b506104526116eb565b60405161045f919061363e565b60405180910390f35b34801561047457600080fd5b5061048f600480360381019061048a9190613cea565b61177d565b005b34801561049d57600080fd5b506104b860048036038101906104b39190613dcb565b611793565b005b3480156104c657600080fd5b506104e160048036038101906104dc9190613696565b6117f5565b6040516104ee919061363e565b60405180910390f35b34801561050357600080fd5b5061051e60048036038101906105199190613a8d565b61185d565b005b34801561052c57600080fd5b5061054760048036038101906105429190613e4e565b612046565b6040516105549190613593565b60405180910390f35b60007f80ac58cd000000000000000000000000000000000000000000000000000000007bffffffffffffffffffffffffffffffffffffffffffffffffffffffff1916827bffffffffffffffffffffffffffffffffffffffffffffffffffffffff1916148061062857507f5b5e139f000000000000000000000000000000000000000000000000000000007bffffffffffffffffffffffffffffffffffffffffffffffffffffffff1916827bffffffffffffffffffffffffffffffffffffffffffffffffffffffff1916145b806106385750610637826120da565b5b9050919050565b60606000805461064e90613ebd565b80601f016020809104026020016040519081016040528092919081815260200182805461067a90613ebd565b80156106c75780601f1061069c576101008083540402835291602001916106c7565b820191906000526020600020905b8154815290600101906020018083116106aa57829003601f168201915b5050505050905090565b60006106dc82612144565b6004600083815260200190815260200160002060009054906101000a900473ffffffffffffffffffffffffffffffffffffffff169050919050565b6000610722826114fa565b90508073ffffffffffffffffffffffffffffffffffffffff168373ffffffffffffffffffffffffffffffffffffffff1603610792576040517f08c379a000000000000000000000000000000000000000000000000000000000815260040161078990613f60565b60405180910390fd5b8073ffffffffffffffffffffffffffffffffffffffff166107b161218f565b73ffffffffffffffffffffffffffffffffffffffff1614806107e057506107df816107da61218f565b612046565b5b61081f576040517f08c379a000000000000000000000000000000000000000000000000000000000815260040161081690613ff2565b60405180910390fd5b6108298383612197565b505050565b60006040518060c001604052808781526020018681526020018581526020018481526020018381526020013373ffffffffffffffffffffffffffffffffffffffff16815250905080600860003373ffffffffffffffffffffffffffffffffffffffff1673ffffffffffffffffffffffffffffffffffffffff16815260200190815260200160002060008201518160000190816108ca91906141be565b5060208201518160010190816108e091906141be565b5060408201518160020190816108f691906141be565b50606082015181600301908161090c91906141be565b50608082015181600401908161092291906141be565b5060a08201518160050160006101000a81548173ffffffffffffffffffffffffffffffffffffffff021916908373ffffffffffffffffffffffffffffffffffffffff1602179055509050503373ffffffffffffffffffffffffffffffffffffffff167f9b7403088f4a21d776ad14d65cfc761539d488be1ae179ff49a694a85741a47387878787876040516109bb959493929190614290565b60405180910390a2505050505050565b6000600860003373ffffffffffffffffffffffffffffffffffffffff1673ffffffffffffffffffffffffffffffffffffffff1681526020019081526020016000206040518060c0016040529081600082018054610a2790613ebd565b80601f0160208091040260200160405190810160405280929190818152602001828054610a5390613ebd565b8015610aa05780601f10610a7557610100808354040283529160200191610aa0565b820191906000526020600020905b815481529060010190602001808311610a8357829003601f168201915b50505050508152602001600182018054610ab990613ebd565b80601f0160208091040260200160405190810160405280929190818152602001828054610ae590613ebd565b8015610b325780601f10610b0757610100808354040283529160200191610b32565b820191906000526020600020905b815481529060010190602001808311610b1557829003601f168201915b50505050508152602001600282018054610b4b90613ebd565b80601f0160208091040260200160405190810160405280929190818152602001828054610b7790613ebd565b8015610bc45780601f10610b9957610100808354040283529160200191610bc4565b820191906000526020600020905b815481529060010190602001808311610ba757829003601f168201915b50505050508152602001600382018054610bdd90613ebd565b80601f0160208091040260200160405190810160405280929190818152602001828054610c0990613ebd565b8015610c565780601f10610c2b57610100808354040283529160200191610c56565b820191906000526020600020905b815481529060010190602001808311610c3957829003601f168201915b50505050508152602001600482018054610c6f90613ebd565b80601f0160208091040260200160405190810160405280929190818152602001828054610c9b90613ebd565b8015610ce85780601f10610cbd57610100808354040283529160200191610ce8565b820191906000526020600020905b815481529060010190602001808311610ccb57829003601f168201915b505050505081526020016005820160009054906101000a900473ffffffffffffffffffffffffffffffffffffffff1673ffffffffffffffffffffffffffffffffffffffff1673ffffffffffffffffffffffffffffffffffffffff16815250509050604051602001610d5890614337565b604051602081830303815290604052805190602001208160000151604051602001610d83919061437d565b6040516020818303038152906040528051906020012003610dd9576040517f08c379a0000000000000000000000000000000000000000000000000000000008152600401610dd090614406565b60405180910390fd5b600080600c60003373ffffffffffffffffffffffffffffffffffffffff1673ffffffffffffffffffffffffffffffffffffffff1681526020019081526020016000205414610e28576001610e2b565b60005b60ff169050600080600c60003373ffffffffffffffffffffffffffffffffffffffff1673ffffffffffffffffffffffffffffffffffffffff1681526020019081526020016000205414610e7f576000610e82565b60005b60ff169050803414610ec9576040517f08c379a0000000000000000000000000000000000000000000000000000000008152600401610ec090614472565b60405180910390fd5b60008203610ee157610eda84612250565b5050610f0d565b60005b6003811015610f0957610ef685612250565b8080610f01906144c1565b915050610ee4565b5050505b5050565b60065481565b610f28610f2261218f565b8261288f565b610f67576040517f08c379a0000000000000000000000000000000000000000000000000000000008152600401610f5e9061457b565b60405180910390fd5b610f72838383612924565b505050565b610f7f613493565b600860008373ffffffffffffffffffffffffffffffffffffffff1673ffffffffffffffffffffffffffffffffffffffff1681526020019081526020016000206040518060c0016040529081600082018054610fd990613ebd565b80601f016020809104026020016040519081016040528092919081815260200182805461100590613ebd565b80156110525780601f1061102757610100808354040283529160200191611052565b820191906000526020600020905b81548152906001019060200180831161103557829003601f168201915b5050505050815260200160018201805461106b90613ebd565b80601f016020809104026020016040519081016040528092919081815260200182805461109790613ebd565b80156110e45780601f106110b9576101008083540402835291602001916110e4565b820191906000526020600020905b8154815290600101906020018083116110c757829003601f168201915b505050505081526020016002820180546110fd90613ebd565b80601f016020809104026020016040519081016040528092919081815260200182805461112990613ebd565b80156111765780601f1061114b57610100808354040283529160200191611176565b820191906000526020600020905b81548152906001019060200180831161115957829003601f168201915b5050505050815260200160038201805461118f90613ebd565b80601f01602080910402602001604051908101604052809291908181526020018280546111bb90613ebd565b80156112085780601f106111dd57610100808354040283529160200191611208565b820191906000526020600020905b8154815290600101906020018083116111eb57829003601f168201915b5050505050815260200160048201805461122190613ebd565b80601f016020809104026020016040519081016040528092919081815260200182805461124d90613ebd565b801561129a5780601f1061126f5761010080835404028352916020019161129a565b820191906000526020600020905b81548152906001019060200180831161127d57829003601f168201915b505050505081526020016005820160009054906101000a900473ffffffffffffffffffffffffffffffffffffffff1673ffffffffffffffffffffffffffffffffffffffff1673ffffffffffffffffffffffffffffffffffffffff16815250509050919050565b6060600d6000838152602001908152602001600020805461132090613ebd565b80601f016020809104026020016040519081016040528092919081815260200182805461134c90613ebd565b80156113995780601f1061136e57610100808354040283529160200191611399565b820191906000526020600020905b81548152906001019060200180831161137c57829003601f168201915b50505050509050919050565b600760009054906101000a900473ffffffffffffffffffffffffffffffffffffffff1673ffffffffffffffffffffffffffffffffffffffff163373ffffffffffffffffffffffffffffffffffffffff16146113ff57600080fd5b600047905060008111611447576040517f08c379a000000000000000000000000000000000000000000000000000000000815260040161143e906145e7565b60405180910390fd5b3373ffffffffffffffffffffffffffffffffffffffff166108fc829081150290604051600060405180830381858888f1935050505015801561148d573d6000803e3d6000fd5b5050565b6114ac83838360405180602001604052806000815250611793565b505050565b6000600c60008373ffffffffffffffffffffffffffffffffffffffff1673ffffffffffffffffffffffffffffffffffffffff168152602001908152602001600020549050919050565b60008061150683612c1d565b9050600073ffffffffffffffffffffffffffffffffffffffff168173ffffffffffffffffffffffffffffffffffffffff1603611577576040517f08c379a000000000000000000000000000000000000000000000000000000000815260040161156e90614653565b60405180910390fd5b80915050919050565b60008073ffffffffffffffffffffffffffffffffffffffff168273ffffffffffffffffffffffffffffffffffffffff16036115f0576040517f08c379a00000000000000000000000000000000000000000000000000000000081526004016115e7906146e5565b60405180910390fd5b600360008373ffffffffffffffffffffffffffffffffffffffff1673ffffffffffffffffffffffffffffffffffffffff168152602001908152602001600020549050919050565b6060600060065467ffffffffffffffff81111561165757611656613795565b5b60405190808252806020026020018201604052801561168a57816020015b60608152602001906001900390816116755790505b5090506000600190505b60065481116116e3576116a681611300565b826001836116b49190614705565b815181106116c5576116c4614739565b5b602002602001018190525080806116db906144c1565b915050611694565b508091505090565b6060600180546116fa90613ebd565b80601f016020809104026020016040519081016040528092919081815260200182805461172690613ebd565b80156117735780601f1061174857610100808354040283529160200191611773565b820191906000526020600020905b81548152906001019060200180831161175657829003601f168201915b5050505050905090565b61178f61178861218f565b8383612c5a565b5050565b6117a461179e61218f565b8361288f565b6117e3576040517f08c379a00000000000000000000000000000000000000000000000000000000081526004016117da9061457b565b60405180910390fd5b6117ef84848484612dc6565b50505050565b606061180082612144565b600061180a612e22565b9050600081511161182a5760405180602001604052806000815250611855565b8061183484612e39565b604051602001611845929190614768565b6040516020818303038152906040525b915050919050565b6000600860003373ffffffffffffffffffffffffffffffffffffffff1673ffffffffffffffffffffffffffffffffffffffff1681526020019081526020016000206040518060c00160405290816000820180546118b990613ebd565b80601f01602080910402602001604051908101604052809291908181526020018280546118e590613ebd565b80156119325780601f1061190757610100808354040283529160200191611932565b820191906000526020600020905b81548152906001019060200180831161191557829003601f168201915b5050505050815260200160018201805461194b90613ebd565b80601f016020809104026020016040519081016040528092919081815260200182805461197790613ebd565b80156119c45780601f10611999576101008083540402835291602001916119c4565b820191906000526020600020905b8154815290600101906020018083116119a757829003601f168201915b505050505081526020016002820180546119dd90613ebd565b80601f0160208091040260200160405190810160405280929190818152602001828054611a0990613ebd565b8015611a565780601f10611a2b57610100808354040283529160200191611a56565b820191906000526020600020905b815481529060010190602001808311611a3957829003601f168201915b50505050508152602001600382018054611a6f90613ebd565b80601f0160208091040260200160405190810160405280929190818152602001828054611a9b90613ebd565b8015611ae85780601f10611abd57610100808354040283529160200191611ae8565b820191906000526020600020905b815481529060010190602001808311611acb57829003601f168201915b50505050508152602001600482018054611b0190613ebd565b80601f0160208091040260200160405190810160405280929190818152602001828054611b2d90613ebd565b8015611b7a5780601f10611b4f57610100808354040283529160200191611b7a565b820191906000526020600020905b815481529060010190602001808311611b5d57829003601f168201915b505050505081526020016005820160009054906101000a900473ffffffffffffffffffffffffffffffffffffffff1673ffffffffffffffffffffffffffffffffffffffff1673ffffffffffffffffffffffffffffffffffffffff16815250509050604051602001611bea90614337565b604051602081830303815290604052805190602001208160000151604051602001611c15919061437d565b6040516020818303038152906040528051906020012003611c6b576040517f08c379a0000000000000000000000000000000000000000000000000000000008152600401611c6290614406565b60405180910390fd5b6000600c60003373ffffffffffffffffffffffffffffffffffffffff1673ffffffffffffffffffffffffffffffffffffffff1681526020019081526020016000205403611ced576040517f08c379a0000000000000000000000000000000000000000000000000000000008152600401611ce4906147d8565b60405180910390fd5b600080600960003373ffffffffffffffffffffffffffffffffffffffff1673ffffffffffffffffffffffffffffffffffffffff168152602001908152602001600020805480602002602001604051908101604052809291908181526020018280548015611d7957602002820191906000526020600020905b815481526020019060010190808311611d65575b5050505050905060005b8151811015611ee5576000828281518110611da157611da0614739565b5b6020026020010151905060011515600a60003373ffffffffffffffffffffffffffffffffffffffff1673ffffffffffffffffffffffffffffffffffffffff168152602001908152602001600020600083815260200190815260200160002060009054906101000a900460ff16151503611e1d5780935050611ee5565b60018351611e2b9190614705565b82148015611e9a575060001515600a60003373ffffffffffffffffffffffffffffffffffffffff1673ffffffffffffffffffffffffffffffffffffffff168152602001908152602001600020600083815260200190815260200160002060009054906101000a900460ff161515145b15611ed1576040517ffb79505600000000000000000000000000000000000000000000000000000000815260040160405180910390fd5b508080611edd906144c1565b915050611d83565b50611ef1338584611491565b6000600a60003373ffffffffffffffffffffffffffffffffffffffff1673ffffffffffffffffffffffffffffffffffffffff168152602001908152602001600020600084815260200190815260200160002060006101000a81548160ff021916908315150217905550600c60003373ffffffffffffffffffffffffffffffffffffffff1673ffffffffffffffffffffffffffffffffffffffff1681526020019081526020016000206000815480929190611faa906147f8565b91905055508373ffffffffffffffffffffffffffffffffffffffff167fbf54973e19f2f601a8cfc3f463b30866ec116e82af5aedb3356c440cb2a4ca723384600c60003373ffffffffffffffffffffffffffffffffffffffff1673ffffffffffffffffffffffffffffffffffffffff1681526020019081526020016000205460405161203893929190614821565b60405180910390a250505050565b6000600560008473ffffffffffffffffffffffffffffffffffffffff1673ffffffffffffffffffffffffffffffffffffffff16815260200190815260200160002060008373ffffffffffffffffffffffffffffffffffffffff1673ffffffffffffffffffffffffffffffffffffffff16815260200190815260200160002060009054906101000a900460ff16905092915050565b60007f01ffc9a7000000000000000000000000000000000000000000000000000000007bffffffffffffffffffffffffffffffffffffffffffffffffffffffff1916827bffffffffffffffffffffffffffffffffffffffffffffffffffffffff1916149050919050565b61214d81612f07565b61218c576040517f08c379a000000000000000000000000000000000000000000000000000000000815260040161218390614653565b60405180910390fd5b50565b600033905090565b816004600083815260200190815260200160002060006101000a81548173ffffffffffffffffffffffffffffffffffffffff021916908373ffffffffffffffffffffffffffffffffffffffff160217905550808273ffffffffffffffffffffffffffffffffffffffff1661220a836114fa565b73ffffffffffffffffffffffffffffffffffffffff167f8c5be1e5ebec7d5bd14f71427d1e84f3dd0314c0f7b2291e5b200ac8c7c3b92560405160405180910390a45050565b6000600860003373ffffffffffffffffffffffffffffffffffffffff1673ffffffffffffffffffffffffffffffffffffffff1681526020019081526020016000206040518060c00160405290816000820180546122ac90613ebd565b80601f01602080910402602001604051908101604052809291908181526020018280546122d890613ebd565b80156123255780601f106122fa57610100808354040283529160200191612325565b820191906000526020600020905b81548152906001019060200180831161230857829003601f168201915b5050505050815260200160018201805461233e90613ebd565b80601f016020809104026020016040519081016040528092919081815260200182805461236a90613ebd565b80156123b75780601f1061238c576101008083540402835291602001916123b7565b820191906000526020600020905b81548152906001019060200180831161239a57829003601f168201915b505050505081526020016002820180546123d090613ebd565b80601f01602080910402602001604051908101604052809291908181526020018280546123fc90613ebd565b80156124495780601f1061241e57610100808354040283529160200191612449565b820191906000526020600020905b81548152906001019060200180831161242c57829003601f168201915b5050505050815260200160038201805461246290613ebd565b80601f016020809104026020016040519081016040528092919081815260200182805461248e90613ebd565b80156124db5780601f106124b0576101008083540402835291602001916124db565b820191906000526020600020905b8154815290600101906020018083116124be57829003601f168201915b505050505081526020016004820180546124f490613ebd565b80601f016020809104026020016040519081016040528092919081815260200182805461252090613ebd565b801561256d5780601f106125425761010080835404028352916020019161256d565b820191906000526020600020905b81548152906001019060200180831161255057829003601f168201915b505050505081526020016005820160009054906101000a900473ffffffffffffffffffffffffffffffffffffffff1673ffffffffffffffffffffffffffffffffffffffff1673ffffffffffffffffffffffffffffffffffffffff168152505090506040516020016125dd90614337565b604051602081830303815290604052805190602001208160000151604051602001612608919061437d565b604051602081830303815290604052805190602001200361265e576040517f08c379a000000000000000000000000000000000000000000000000000000000815260040161265590614406565b60405180910390fd5b60066000815480929190612671906144c1565b919050555061268233600654612f48565b6000600960003373ffffffffffffffffffffffffffffffffffffffff1673ffffffffffffffffffffffffffffffffffffffff16815260200190815260200160002090508060065490806001815401808255809150506001900390600052602060002001600090919091909150556001600a60003373ffffffffffffffffffffffffffffffffffffffff1673ffffffffffffffffffffffffffffffffffffffff1681526020019081526020016000206000600654815260200190815260200160002060006101000a81548160ff02191690831515021790555033600b6000600654815260200190815260200160002060006101000a81548173ffffffffffffffffffffffffffffffffffffffff021916908373ffffffffffffffffffffffffffffffffffffffff160217905550600c60003373ffffffffffffffffffffffffffffffffffffffff1673ffffffffffffffffffffffffffffffffffffffff16815260200190815260200160002060008154809291906127fe906144c1565b919050555061280f60065484613165565b6006547f7a6ad7195ca91645d17cad091d2ae2739154ec1b2b8bd552b9f7e68df606737733600c60003373ffffffffffffffffffffffffffffffffffffffff1673ffffffffffffffffffffffffffffffffffffffff16815260200190815260200160002054604051612882929190614858565b60405180910390a2505050565b60008061289b836114fa565b90508073ffffffffffffffffffffffffffffffffffffffff168473ffffffffffffffffffffffffffffffffffffffff1614806128dd57506128dc8185612046565b5b8061291b57508373ffffffffffffffffffffffffffffffffffffffff16612903846106d1565b73ffffffffffffffffffffffffffffffffffffffff16145b91505092915050565b8273ffffffffffffffffffffffffffffffffffffffff16612944826114fa565b73ffffffffffffffffffffffffffffffffffffffff161461299a576040517f08c379a0000000000000000000000000000000000000000000000000000000008152600401612991906148f3565b60405180910390fd5b600073ffffffffffffffffffffffffffffffffffffffff168273ffffffffffffffffffffffffffffffffffffffff1603612a09576040517f08c379a0000000000000000000000000000000000000000000000000000000008152600401612a0090614985565b60405180910390fd5b612a16838383600161318a565b8273ffffffffffffffffffffffffffffffffffffffff16612a36826114fa565b73ffffffffffffffffffffffffffffffffffffffff1614612a8c576040517f08c379a0000000000000000000000000000000000000000000000000000000008152600401612a83906148f3565b60405180910390fd5b6004600082815260200190815260200160002060006101000a81549073ffffffffffffffffffffffffffffffffffffffff02191690556001600360008573ffffffffffffffffffffffffffffffffffffffff1673ffffffffffffffffffffffffffffffffffffffff168152602001908152602001600020600082825403925050819055506001600360008473ffffffffffffffffffffffffffffffffffffffff1673ffffffffffffffffffffffffffffffffffffffff16815260200190815260200160002060008282540192505081905550816002600083815260200190815260200160002060006101000a81548173ffffffffffffffffffffffffffffffffffffffff021916908373ffffffffffffffffffffffffffffffffffffffff160217905550808273ffffffffffffffffffffffffffffffffffffffff168473ffffffffffffffffffffffffffffffffffffffff167fddf252ad1be2c89b69c2b068fc378daa952ba7f163c4a11628f55a4df523b3ef60405160405180910390a4612c188383836001613190565b505050565b60006002600083815260200190815260200160002060009054906101000a900473ffffffffffffffffffffffffffffffffffffffff169050919050565b8173ffffffffffffffffffffffffffffffffffffffff168373ffffffffffffffffffffffffffffffffffffffff1603612cc8576040517f08c379a0000000000000000000000000000000000000000000000000000000008152600401612cbf906149f1565b60405180910390fd5b80600560008573ffffffffffffffffffffffffffffffffffffffff1673ffffffffffffffffffffffffffffffffffffffff16815260200190815260200160002060008473ffffffffffffffffffffffffffffffffffffffff1673ffffffffffffffffffffffffffffffffffffffff16815260200190815260200160002060006101000a81548160ff0219169083151502179055508173ffffffffffffffffffffffffffffffffffffffff168373ffffffffffffffffffffffffffffffffffffffff167f17307eab39ab6107e8899845ad3d59bd9653f200f220920489ca2b5937696c3183604051612db99190613593565b60405180910390a3505050565b612dd1848484612924565b612ddd84848484613196565b612e1c576040517f08c379a0000000000000000000000000000000000000000000000000000000008152600401612e1390614a83565b60405180910390fd5b50505050565b606060405180602001604052806000815250905090565b606060006001612e488461331d565b01905060008167ffffffffffffffff811115612e6757612e66613795565b5b6040519080825280601f01601f191660200182016040528015612e995781602001600182028036833780820191505090505b509050600082602001820190505b600115612efc578080600190039150507f3031323334353637383961626364656600000000000000000000000000000000600a86061a8153600a8581612ef057612eef614aa3565b5b04945060008503612ea7575b819350505050919050565b60008073ffffffffffffffffffffffffffffffffffffffff16612f2983612c1d565b73ffffffffffffffffffffffffffffffffffffffff1614159050919050565b600073ffffffffffffffffffffffffffffffffffffffff168273ffffffffffffffffffffffffffffffffffffffff1603612fb7576040517f08c379a0000000000000000000000000000000000000000000000000000000008152600401612fae90614b1e565b60405180910390fd5b612fc081612f07565b15613000576040517f08c379a0000000000000000000000000000000000000000000000000000000008152600401612ff790614b8a565b60405180910390fd5b61300e60008383600161318a565b61301781612f07565b15613057576040517f08c379a000000000000000000000000000000000000000000000000000000000815260040161304e90614b8a565b60405180910390fd5b6001600360008473ffffffffffffffffffffffffffffffffffffffff1673ffffffffffffffffffffffffffffffffffffffff16815260200190815260200160002060008282540192505081905550816002600083815260200190815260200160002060006101000a81548173ffffffffffffffffffffffffffffffffffffffff021916908373ffffffffffffffffffffffffffffffffffffffff160217905550808273ffffffffffffffffffffffffffffffffffffffff16600073ffffffffffffffffffffffffffffffffffffffff167fddf252ad1be2c89b69c2b068fc378daa952ba7f163c4a11628f55a4df523b3ef60405160405180910390a4613161600083836001613190565b5050565b80600d6000848152602001908152602001600020908161318591906141be565b505050565b50505050565b50505050565b60006131b78473ffffffffffffffffffffffffffffffffffffffff16613470565b15613310578373ffffffffffffffffffffffffffffffffffffffff1663150b7a026131e061218f565b8786866040518563ffffffff1660e01b81526004016132029493929190614bff565b6020604051808303816000875af192505050801561323e57506040513d601f19601f8201168201806040525081019061323b9190614c60565b60015b6132c0573d806000811461326e576040519150601f19603f3d011682016040523d82523d6000602084013e613273565b606091505b5060008151036132b8576040517f08c379a00000000000000000000000000000000000000000000000000000000081526004016132af90614a83565b60405180910390fd5b805181602001fd5b63150b7a0260e01b7bffffffffffffffffffffffffffffffffffffffffffffffffffffffff1916817bffffffffffffffffffffffffffffffffffffffffffffffffffffffff191614915050613315565b600190505b949350505050565b600080600090507a184f03e93ff9f4daa797ed6e38ed64bf6a1f010000000000000000831061337b577a184f03e93ff9f4daa797ed6e38ed64bf6a1f010000000000000000838161337157613370614aa3565b5b0492506040810190505b6d04ee2d6d415b85acef810000000083106133b8576d04ee2d6d415b85acef810000000083816133ae576133ad614aa3565b5b0492506020810190505b662386f26fc1000083106133e757662386f26fc1000083816133dd576133dc614aa3565b5b0492506010810190505b6305f5e1008310613410576305f5e100838161340657613405614aa3565b5b0492506008810190505b612710831061343557612710838161342b5761342a614aa3565b5b0492506004810190505b60648310613458576064838161344e5761344d614aa3565b5b0492506002810190505b600a8310613467576001810190505b80915050919050565b6000808273ffffffffffffffffffffffffffffffffffffffff163b119050919050565b6040518060c001604052806060815260200160608152602001606081526020016060815260200160608152602001600073ffffffffffffffffffffffffffffffffffffffff1681525090565b6000604051905090565b600080fd5b600080fd5b60007fffffffff0000000000000000000000000000000000000000000000000000000082169050919050565b613528816134f3565b811461353357600080fd5b50565b6000813590506135458161351f565b92915050565b600060208284031215613561576135606134e9565b5b600061356f84828501613536565b91505092915050565b60008115159050919050565b61358d81613578565b82525050565b60006020820190506135a86000830184613584565b92915050565b600081519050919050565b600082825260208201905092915050565b60005b838110156135e85780820151818401526020810190506135cd565b60008484015250505050565b6000601f19601f8301169050919050565b6000613610826135ae565b61361a81856135b9565b935061362a8185602086016135ca565b613633816135f4565b840191505092915050565b600060208201905081810360008301526136588184613605565b905092915050565b6000819050919050565b61367381613660565b811461367e57600080fd5b50565b6000813590506136908161366a565b92915050565b6000602082840312156136ac576136ab6134e9565b5b60006136ba84828501613681565b91505092915050565b600073ffffffffffffffffffffffffffffffffffffffff82169050919050565b60006136ee826136c3565b9050919050565b6136fe816136e3565b82525050565b600060208201905061371960008301846136f5565b92915050565b613728816136e3565b811461373357600080fd5b50565b6000813590506137458161371f565b92915050565b60008060408385031215613762576137616134e9565b5b600061377085828601613736565b925050602061378185828601613681565b9150509250929050565b600080fd5b600080fd5b7f4e487b7100000000000000000000000000000000000000000000000000000000600052604160045260246000fd5b6137cd826135f4565b810181811067ffffffffffffffff821117156137ec576137eb613795565b5b80604052505050565b60006137ff6134df565b905061380b82826137c4565b919050565b600067ffffffffffffffff82111561382b5761382a613795565b5b613834826135f4565b9050602081019050919050565b82818337600083830152505050565b600061386361385e84613810565b6137f5565b90508281526020810184848401111561387f5761387e613790565b5b61388a848285613841565b509392505050565b600082601f8301126138a7576138a661378b565b5b81356138b7848260208601613850565b91505092915050565b600080600080600060a086880312156138dc576138db6134e9565b5b600086013567ffffffffffffffff8111156138fa576138f96134ee565b5b61390688828901613892565b955050602086013567ffffffffffffffff811115613927576139266134ee565b5b61393388828901613892565b945050604086013567ffffffffffffffff811115613954576139536134ee565b5b61396088828901613892565b935050606086013567ffffffffffffffff811115613981576139806134ee565b5b61398d88828901613892565b925050608086013567ffffffffffffffff8111156139ae576139ad6134ee565b5b6139ba88828901613892565b9150509295509295909350565b6000602082840312156139dd576139dc6134e9565b5b600082013567ffffffffffffffff8111156139fb576139fa6134ee565b5b613a0784828501613892565b91505092915050565b613a1981613660565b82525050565b6000602082019050613a346000830184613a10565b92915050565b600080600060608486031215613a5357613a526134e9565b5b6000613a6186828701613736565b9350506020613a7286828701613736565b9250506040613a8386828701613681565b9150509250925092565b600060208284031215613aa357613aa26134e9565b5b6000613ab184828501613736565b91505092915050565b600082825260208201905092915050565b6000613ad6826135ae565b613ae08185613aba565b9350613af08185602086016135ca565b613af9816135f4565b840191505092915050565b613b0d816136e3565b82525050565b600060c0830160008301518482036000860152613b308282613acb565b91505060208301518482036020860152613b4a8282613acb565b91505060408301518482036040860152613b648282613acb565b91505060608301518482036060860152613b7e8282613acb565b91505060808301518482036080860152613b988282613acb565b91505060a0830151613bad60a0860182613b04565b508091505092915050565b60006020820190508181036000830152613bd28184613b13565b905092915050565b600081519050919050565b600082825260208201905092915050565b6000819050602082019050919050565b6000613c128383613acb565b905092915050565b6000602082019050919050565b6000613c3282613bda565b613c3c8185613be5565b935083602082028501613c4e85613bf6565b8060005b85811015613c8a5784840389528151613c6b8582613c06565b9450613c7683613c1a565b925060208a01995050600181019050613c52565b50829750879550505050505092915050565b60006020820190508181036000830152613cb68184613c27565b905092915050565b613cc781613578565b8114613cd257600080fd5b50565b600081359050613ce481613cbe565b92915050565b60008060408385031215613d0157613d006134e9565b5b6000613d0f85828601613736565b9250506020613d2085828601613cd5565b9150509250929050565b600067ffffffffffffffff821115613d4557613d44613795565b5b613d4e826135f4565b9050602081019050919050565b6000613d6e613d6984613d2a565b6137f5565b905082815260208101848484011115613d8a57613d89613790565b5b613d95848285613841565b509392505050565b600082601f830112613db257613db161378b565b5b8135613dc2848260208601613d5b565b91505092915050565b60008060008060808587031215613de557613de46134e9565b5b6000613df387828801613736565b9450506020613e0487828801613736565b9350506040613e1587828801613681565b925050606085013567ffffffffffffffff811115613e3657613e356134ee565b5b613e4287828801613d9d565b91505092959194509250565b60008060408385031215613e6557613e646134e9565b5b6000613e7385828601613736565b9250506020613e8485828601613736565b9150509250929050565b7f4e487b7100000000000000000000000000000000000000000000000000000000600052602260045260246000fd5b60006002820490506001821680613ed557607f821691505b602082108103613ee857613ee7613e8e565b5b50919050565b7f4552433732313a20617070726f76616c20746f2063757272656e74206f776e6560008201527f7200000000000000000000000000000000000000000000000000000000000000602082015250565b6000613f4a6021836135b9565b9150613f5582613eee565b604082019050919050565b60006020820190508181036000830152613f7981613f3d565b9050919050565b7f4552433732313a20617070726f76652063616c6c6572206973206e6f7420746f60008201527f6b656e206f776e6572206f7220617070726f76656420666f7220616c6c000000602082015250565b6000613fdc603d836135b9565b9150613fe782613f80565b604082019050919050565b6000602082019050818103600083015261400b81613fcf565b9050919050565b60008190508160005260206000209050919050565b60006020601f8301049050919050565b600082821b905092915050565b6000600883026140747fffffffffffffffffffffffffffffffffffffffffffffffffffffffffffffffff82614037565b61407e8683614037565b95508019841693508086168417925050509392505050565b6000819050919050565b60006140bb6140b66140b184613660565b614096565b613660565b9050919050565b6000819050919050565b6140d5836140a0565b6140e96140e1826140c2565b848454614044565b825550505050565b600090565b6140fe6140f1565b6141098184846140cc565b505050565b5b8181101561412d576141226000826140f6565b60018101905061410f565b5050565b601f8211156141725761414381614012565b61414c84614027565b8101602085101561415b578190505b61416f61416785614027565b83018261410e565b50505b505050565b600082821c905092915050565b600061419560001984600802614177565b1980831691505092915050565b60006141ae8383614184565b9150826002028217905092915050565b6141c7826135ae565b67ffffffffffffffff8111156141e0576141df613795565b5b6141ea8254613ebd565b6141f5828285614131565b600060209050601f8311600181146142285760008415614216578287015190505b61422085826141a2565b865550614288565b601f19841661423686614012565b60005b8281101561425e57848901518255600182019150602085019450602081019050614239565b8683101561427b5784890151614277601f891682614184565b8355505b6001600288020188555050505b505050505050565b600060a08201905081810360008301526142aa8188613605565b905081810360208301526142be8187613605565b905081810360408301526142d28186613605565b905081810360608301526142e68185613605565b905081810360808301526142fa8184613605565b90509695505050505050565b600081905092915050565b50565b6000614321600083614306565b915061432c82614311565b600082019050919050565b600061434282614314565b9150819050919050565b6000614357826135ae565b6143618185614306565b93506143718185602086016135ca565b80840191505092915050565b6000614389828461434c565b915081905092915050565b7f526567697374657220796f75722053696d706c65204361726420696e666f204660008201527f6972737400000000000000000000000000000000000000000000000000000000602082015250565b60006143f06024836135b9565b91506143fb82614394565b604082019050919050565b6000602082019050818103600083015261441f816143e3565b9050919050565b7f496e636f72726563742045746865722076616c75650000000000000000000000600082015250565b600061445c6015836135b9565b915061446782614426565b602082019050919050565b6000602082019050818103600083015261448b8161444f565b9050919050565b7f4e487b7100000000000000000000000000000000000000000000000000000000600052601160045260246000fd5b60006144cc82613660565b91507fffffffffffffffffffffffffffffffffffffffffffffffffffffffffffffffff82036144fe576144fd614492565b5b600182019050919050565b7f4552433732313a2063616c6c6572206973206e6f7420746f6b656e206f776e6560008201527f72206f7220617070726f76656400000000000000000000000000000000000000602082015250565b6000614565602d836135b9565b915061457082614509565b604082019050919050565b6000602082019050818103600083015261459481614558565b9050919050565b7f436f6e74726163742062616c616e6365206973207a65726f0000000000000000600082015250565b60006145d16018836135b9565b91506145dc8261459b565b602082019050919050565b60006020820190508181036000830152614600816145c4565b9050919050565b7f4552433732313a20696e76616c696420746f6b656e2049440000000000000000600082015250565b600061463d6018836135b9565b915061464882614607565b602082019050919050565b6000602082019050818103600083015261466c81614630565b9050919050565b7f4552433732313a2061646472657373207a65726f206973206e6f74206120766160008201527f6c6964206f776e65720000000000000000000000000000000000000000000000602082015250565b60006146cf6029836135b9565b91506146da82614673565b604082019050919050565b600060208201905081810360008301526146fe816146c2565b9050919050565b600061471082613660565b915061471b83613660565b925082820390508181111561473357614732614492565b5b92915050565b7f4e487b7100000000000000000000000000000000000000000000000000000000600052603260045260246000fd5b6000614774828561434c565b9150614780828461434c565b91508190509392505050565b7f4d696e7420796f75722053696d706c652043617264204e465420666972737400600082015250565b60006147c2601f836135b9565b91506147cd8261478c565b602082019050919050565b600060208201905081810360008301526147f1816147b5565b9050919050565b600061480382613660565b91506000820361481657614815614492565b5b600182039050919050565b600060608201905061483660008301866136f5565b6148436020830185613a10565b6148506040830184613a10565b949350505050565b600060408201905061486d60008301856136f5565b61487a6020830184613a10565b9392505050565b7f4552433732313a207472616e736665722066726f6d20696e636f72726563742060008201527f6f776e6572000000000000000000000000000000000000000000000000000000602082015250565b60006148dd6025836135b9565b91506148e882614881565b604082019050919050565b6000602082019050818103600083015261490c816148d0565b9050919050565b7f4552433732313a207472616e7366657220746f20746865207a65726f2061646460008201527f7265737300000000000000000000000000000000000000000000000000000000602082015250565b600061496f6024836135b9565b915061497a82614913565b604082019050919050565b6000602082019050818103600083015261499e81614962565b9050919050565b7f4552433732313a20617070726f766520746f2063616c6c657200000000000000600082015250565b60006149db6019836135b9565b91506149e6826149a5565b602082019050919050565b60006020820190508181036000830152614a0a816149ce565b9050919050565b7f4552433732313a207472616e7366657220746f206e6f6e20455243373231526560008201527f63656976657220696d706c656d656e7465720000000000000000000000000000602082015250565b6000614a6d6032836135b9565b9150614a7882614a11565b604082019050919050565b60006020820190508181036000830152614a9c81614a60565b9050919050565b7f4e487b7100000000000000000000000000000000000000000000000000000000600052601260045260246000fd5b7f4552433732313a206d696e7420746f20746865207a65726f2061646472657373600082015250565b6000614b086020836135b9565b9150614b1382614ad2565b602082019050919050565b60006020820190508181036000830152614b3781614afb565b9050919050565b7f4552433732313a20746f6b656e20616c7265616479206d696e74656400000000600082015250565b6000614b74601c836135b9565b9150614b7f82614b3e565b602082019050919050565b60006020820190508181036000830152614ba381614b67565b9050919050565b600081519050919050565b600082825260208201905092915050565b6000614bd182614baa565b614bdb8185614bb5565b9350614beb8185602086016135ca565b614bf4816135f4565b840191505092915050565b6000608082019050614c1460008301876136f5565b614c2160208301866136f5565b614c2e6040830185613a10565b8181036060830152614c408184614bc6565b905095945050505050565b600081519050614c5a8161351f565b92915050565b600060208284031215614c7657614c756134e9565b5b6000614c8484828501614c4b565b9150509291505056fea26469706673582212206646e0eb417e0f9ba4280178dc0b181a9595f2172238ca82237b8c311bccb70164736f6c63430008130033",
  "linkReferences": {},
  "deployedLinkReferences": {}
}